{
	"contracts/Affiliate.sol": {
		"AffiliateProgram": {
			"abi": [
				{
					"inputs": [
						{
							"internalType": "uint8",
							"name": "_rate",
							"type": "uint8"
						},
						{
							"internalType": "contract IERC20",
							"name": "_token",
							"type": "address"
						}
					],
					"stateMutability": "nonpayable",
					"type": "constructor"
				},
				{
					"inputs": [
						{
							"internalType": "address",
							"name": "owner",
							"type": "address"
						}
					],
					"name": "OwnableInvalidOwner",
					"type": "error"
				},
				{
					"inputs": [
						{
							"internalType": "address",
							"name": "account",
							"type": "address"
						}
					],
					"name": "OwnableUnauthorizedAccount",
					"type": "error"
				},
				{
					"anonymous": false,
					"inputs": [
						{
							"indexed": true,
							"internalType": "address",
							"name": "customer",
							"type": "address"
						},
						{
							"indexed": false,
							"internalType": "uint256",
							"name": "value",
							"type": "uint256"
						},
						{
							"indexed": true,
							"internalType": "address",
							"name": "affiliate",
							"type": "address"
						},
						{
							"indexed": false,
							"internalType": "uint256",
							"name": "commission",
							"type": "uint256"
						}
					],
					"name": "AccumulatedCommission",
					"type": "event"
				},
				{
					"anonymous": false,
					"inputs": [
						{
							"indexed": true,
							"internalType": "address",
							"name": "affiliateWallet",
							"type": "address"
						}
					],
					"name": "AffiliateRegistered",
					"type": "event"
				},
				{
					"anonymous": false,
					"inputs": [
						{
							"indexed": false,
							"internalType": "uint8",
							"name": "newRate",
							"type": "uint8"
						}
					],
					"name": "ChangeCommisionRate",
					"type": "event"
				},
				{
					"anonymous": false,
					"inputs": [
						{
							"indexed": true,
							"internalType": "address",
							"name": "previousOwner",
							"type": "address"
						},
						{
							"indexed": true,
							"internalType": "address",
							"name": "newOwner",
							"type": "address"
						}
					],
					"name": "OwnershipTransferred",
					"type": "event"
				},
				{
					"anonymous": false,
					"inputs": [
						{
							"indexed": true,
							"internalType": "address",
							"name": "customer",
							"type": "address"
						},
						{
							"indexed": false,
							"internalType": "uint256",
							"name": "value",
							"type": "uint256"
						}
					],
					"name": "WithdrawCommission",
					"type": "event"
				},
				{
					"inputs": [
						{
							"internalType": "address",
							"name": "",
							"type": "address"
						}
					],
					"name": "accumulatedCommission",
					"outputs": [
						{
							"internalType": "uint256",
							"name": "",
							"type": "uint256"
						}
					],
					"stateMutability": "view",
					"type": "function"
				},
				{
					"inputs": [
						{
							"internalType": "address",
							"name": "_affiliate",
							"type": "address"
						},
						{
							"internalType": "uint256",
							"name": "_boughtValue",
							"type": "uint256"
						},
						{
							"internalType": "address",
							"name": "_buyer",
							"type": "address"
						}
					],
					"name": "addCommissionByOwner",
					"outputs": [],
					"stateMutability": "nonpayable",
					"type": "function"
				},
				{
					"inputs": [
						{
							"internalType": "address",
							"name": "",
							"type": "address"
						}
					],
					"name": "affiliates",
					"outputs": [
						{
							"internalType": "uint8",
							"name": "",
							"type": "uint8"
						}
					],
					"stateMutability": "view",
					"type": "function"
				},
				{
					"inputs": [
						{
							"internalType": "uint8",
							"name": "_newRate",
							"type": "uint8"
						}
					],
					"name": "changeCommissionRate",
					"outputs": [],
					"stateMutability": "nonpayable",
					"type": "function"
				},
				{
					"inputs": [],
					"name": "commissionRate",
					"outputs": [
						{
							"internalType": "uint8",
							"name": "",
							"type": "uint8"
						}
					],
					"stateMutability": "view",
					"type": "function"
				},
				{
					"inputs": [],
					"name": "owner",
					"outputs": [
						{
							"internalType": "address",
							"name": "",
							"type": "address"
						}
					],
					"stateMutability": "view",
					"type": "function"
				},
				{
					"inputs": [
						{
							"internalType": "address",
							"name": "_affiliateAddress",
							"type": "address"
						}
					],
					"name": "registerAsAffiliate",
					"outputs": [],
					"stateMutability": "nonpayable",
					"type": "function"
				},
				{
					"inputs": [],
					"name": "renounceOwnership",
					"outputs": [],
					"stateMutability": "nonpayable",
					"type": "function"
				},
				{
					"inputs": [],
					"name": "token",
					"outputs": [
						{
							"internalType": "contract IERC20",
							"name": "",
							"type": "address"
						}
					],
					"stateMutability": "view",
					"type": "function"
				},
				{
					"inputs": [
						{
							"internalType": "address",
							"name": "newOwner",
							"type": "address"
						}
					],
					"name": "transferOwnership",
					"outputs": [],
					"stateMutability": "nonpayable",
					"type": "function"
				},
				{
					"inputs": [],
					"name": "withdrawCommission",
					"outputs": [],
					"stateMutability": "nonpayable",
					"type": "function"
				}
			],
			"devdoc": {
				"errors": {
					"OwnableInvalidOwner(address)": [
						{
							"details": "The owner is not a valid owner account. (eg. `address(0)`)"
						}
					],
					"OwnableUnauthorizedAccount(address)": [
						{
							"details": "The caller account is not authorized to perform an operation."
						}
					]
				},
				"kind": "dev",
				"methods": {
					"owner()": {
						"details": "Returns the address of the current owner."
					},
					"renounceOwnership()": {
						"details": "Leaves the contract without owner. It will not be possible to call `onlyOwner` functions. Can only be called by the current owner. NOTE: Renouncing ownership will leave the contract without an owner, thereby disabling any functionality that is only available to the owner."
					},
					"transferOwnership(address)": {
						"details": "Transfers ownership of the contract to a new account (`newOwner`). Can only be called by the current owner."
					}
				},
				"version": 1
			},
			"evm": {
				"assembly": "    /* \"contracts/Affiliate.sol\":168:3099  contract AffiliateProgram is Ownable {... */\n  mstore(0x40, 0x80)\n    /* \"contracts/Affiliate.sol\":270:393  constructor(uint8 _rate, IERC20 _token) Ownable(msg.sender) {... */\n  callvalue\n  dup1\n  iszero\n  tag_1\n  jumpi\n  0x00\n  dup1\n  revert\ntag_1:\n  pop\n  mload(0x40)\n  sub(codesize, bytecodeSize)\n  dup1\n  bytecodeSize\n  dup4\n  codecopy\n  dup2\n  dup2\n  add\n  0x40\n  mstore\n  dup2\n  add\n  swap1\n  tag_2\n  swap2\n  swap1\n  tag_3\n  jump\t// in\ntag_2:\n    /* \"contracts/Affiliate.sol\":318:328  msg.sender */\n  caller\n    /* \"@openzeppelin/contracts/access/Ownable.sol\":1297:1298  0 */\n  0x00\n    /* \"@openzeppelin/contracts/access/Ownable.sol\":1273:1299  initialOwner == address(0) */\n  0xffffffffffffffffffffffffffffffffffffffff\n  and\n    /* \"@openzeppelin/contracts/access/Ownable.sol\":1273:1285  initialOwner */\n  dup2\n    /* \"@openzeppelin/contracts/access/Ownable.sol\":1273:1299  initialOwner == address(0) */\n  0xffffffffffffffffffffffffffffffffffffffff\n  and\n  sub\n    /* \"@openzeppelin/contracts/access/Ownable.sol\":1269:1364  if (initialOwner == address(0)) {... */\n  tag_7\n  jumpi\n    /* \"@openzeppelin/contracts/access/Ownable.sol\":1350:1351  0 */\n  0x00\n    /* \"@openzeppelin/contracts/access/Ownable.sol\":1322:1353  OwnableInvalidOwner(address(0)) */\n  mload(0x40)\n  0x1e4fbdf700000000000000000000000000000000000000000000000000000000\n  dup2\n  mstore\n  0x04\n  add\n  tag_8\n  swap2\n  swap1\n  tag_9\n  jump\t// in\ntag_8:\n  mload(0x40)\n  dup1\n  swap2\n  sub\n  swap1\n  revert\n    /* \"@openzeppelin/contracts/access/Ownable.sol\":1269:1364  if (initialOwner == address(0)) {... */\ntag_7:\n    /* \"@openzeppelin/contracts/access/Ownable.sol\":1373:1405  _transferOwnership(initialOwner) */\n  tag_10\n    /* \"@openzeppelin/contracts/access/Ownable.sol\":1392:1404  initialOwner */\n  dup2\n    /* \"@openzeppelin/contracts/access/Ownable.sol\":1373:1391  _transferOwnership */\n  shl(0x20, tag_11)\n    /* \"@openzeppelin/contracts/access/Ownable.sol\":1373:1405  _transferOwnership(initialOwner) */\n  0x20\n  shr\n  jump\t// in\ntag_10:\n    /* \"@openzeppelin/contracts/access/Ownable.sol\":1225:1412  constructor(address initialOwner) {... */\n  pop\n    /* \"contracts/Affiliate.sol\":357:362  _rate */\n  dup2\n    /* \"contracts/Affiliate.sol\":340:354  commissionRate */\n  0x00\n  0x14\n    /* \"contracts/Affiliate.sol\":340:362  commissionRate = _rate */\n  0x0100\n  exp\n  dup2\n  sload\n  dup2\n  0xff\n  mul\n  not\n  and\n  swap1\n  dup4\n  0xff\n  and\n  mul\n  or\n  swap1\n  sstore\n  pop\n    /* \"contracts/Affiliate.sol\":380:386  _token */\n  dup1\n    /* \"contracts/Affiliate.sol\":372:377  token */\n  0x01\n  0x00\n    /* \"contracts/Affiliate.sol\":372:386  token = _token */\n  0x0100\n  exp\n  dup2\n  sload\n  dup2\n  0xffffffffffffffffffffffffffffffffffffffff\n  mul\n  not\n  and\n  swap1\n  dup4\n  0xffffffffffffffffffffffffffffffffffffffff\n  and\n  mul\n  or\n  swap1\n  sstore\n  pop\n    /* \"contracts/Affiliate.sol\":270:393  constructor(uint8 _rate, IERC20 _token) Ownable(msg.sender) {... */\n  pop\n  pop\n    /* \"contracts/Affiliate.sol\":168:3099  contract AffiliateProgram is Ownable {... */\n  jump(tag_13)\n    /* \"@openzeppelin/contracts/access/Ownable.sol\":2912:3099  function _transferOwnership(address newOwner) internal virtual {... */\ntag_11:\n    /* \"@openzeppelin/contracts/access/Ownable.sol\":2985:3001  address oldOwner */\n  0x00\n    /* \"@openzeppelin/contracts/access/Ownable.sol\":3004:3010  _owner */\n  dup1\n  0x00\n  swap1\n  sload\n  swap1\n  0x0100\n  exp\n  swap1\n  div\n  0xffffffffffffffffffffffffffffffffffffffff\n  and\n    /* \"@openzeppelin/contracts/access/Ownable.sol\":2985:3010  address oldOwner = _owner */\n  swap1\n  pop\n    /* \"@openzeppelin/contracts/access/Ownable.sol\":3029:3037  newOwner */\n  dup2\n    /* \"@openzeppelin/contracts/access/Ownable.sol\":3020:3026  _owner */\n  0x00\n  dup1\n    /* \"@openzeppelin/contracts/access/Ownable.sol\":3020:3037  _owner = newOwner */\n  0x0100\n  exp\n  dup2\n  sload\n  dup2\n  0xffffffffffffffffffffffffffffffffffffffff\n  mul\n  not\n  and\n  swap1\n  dup4\n  0xffffffffffffffffffffffffffffffffffffffff\n  and\n  mul\n  or\n  swap1\n  sstore\n  pop\n    /* \"@openzeppelin/contracts/access/Ownable.sol\":3083:3091  newOwner */\n  dup2\n    /* \"@openzeppelin/contracts/access/Ownable.sol\":3052:3092  OwnershipTransferred(oldOwner, newOwner) */\n  0xffffffffffffffffffffffffffffffffffffffff\n  and\n    /* \"@openzeppelin/contracts/access/Ownable.sol\":3073:3081  oldOwner */\n  dup2\n    /* \"@openzeppelin/contracts/access/Ownable.sol\":3052:3092  OwnershipTransferred(oldOwner, newOwner) */\n  0xffffffffffffffffffffffffffffffffffffffff\n  and\n  0x8be0079c531659141344cd1fd0a4f28419497f9722a3daafe3b4186f6b6457e0\n  mload(0x40)\n  mload(0x40)\n  dup1\n  swap2\n  sub\n  swap1\n  log3\n    /* \"@openzeppelin/contracts/access/Ownable.sol\":2975:3099  {... */\n  pop\n    /* \"@openzeppelin/contracts/access/Ownable.sol\":2912:3099  function _transferOwnership(address newOwner) internal virtual {... */\n  pop\n  jump\t// out\n    /* \"#utility.yul\":88:205   */\ntag_16:\n    /* \"#utility.yul\":197:198   */\n  0x00\n    /* \"#utility.yul\":194:195   */\n  dup1\n    /* \"#utility.yul\":187:199   */\n  revert\n    /* \"#utility.yul\":334:420   */\ntag_18:\n    /* \"#utility.yul\":369:376   */\n  0x00\n    /* \"#utility.yul\":409:413   */\n  0xff\n    /* \"#utility.yul\":402:407   */\n  dup3\n    /* \"#utility.yul\":398:414   */\n  and\n    /* \"#utility.yul\":387:414   */\n  swap1\n  pop\n    /* \"#utility.yul\":334:420   */\n  swap2\n  swap1\n  pop\n  jump\t// out\n    /* \"#utility.yul\":426:544   */\ntag_19:\n    /* \"#utility.yul\":497:519   */\n  tag_33\n    /* \"#utility.yul\":513:518   */\n  dup2\n    /* \"#utility.yul\":497:519   */\n  tag_18\n  jump\t// in\ntag_33:\n    /* \"#utility.yul\":490:495   */\n  dup2\n    /* \"#utility.yul\":487:520   */\n  eq\n    /* \"#utility.yul\":477:538   */\n  tag_34\n  jumpi\n    /* \"#utility.yul\":534:535   */\n  0x00\n    /* \"#utility.yul\":531:532   */\n  dup1\n    /* \"#utility.yul\":524:536   */\n  revert\n    /* \"#utility.yul\":477:538   */\ntag_34:\n    /* \"#utility.yul\":426:544   */\n  pop\n  jump\t// out\n    /* \"#utility.yul\":550:689   */\ntag_20:\n    /* \"#utility.yul\":605:610   */\n  0x00\n    /* \"#utility.yul\":636:642   */\n  dup2\n    /* \"#utility.yul\":630:643   */\n  mload\n    /* \"#utility.yul\":621:643   */\n  swap1\n  pop\n    /* \"#utility.yul\":652:683   */\n  tag_36\n    /* \"#utility.yul\":677:682   */\n  dup2\n    /* \"#utility.yul\":652:683   */\n  tag_19\n  jump\t// in\ntag_36:\n    /* \"#utility.yul\":550:689   */\n  swap3\n  swap2\n  pop\n  pop\n  jump\t// out\n    /* \"#utility.yul\":695:821   */\ntag_21:\n    /* \"#utility.yul\":732:739   */\n  0x00\n    /* \"#utility.yul\":772:814   */\n  0xffffffffffffffffffffffffffffffffffffffff\n    /* \"#utility.yul\":765:770   */\n  dup3\n    /* \"#utility.yul\":761:815   */\n  and\n    /* \"#utility.yul\":750:815   */\n  swap1\n  pop\n    /* \"#utility.yul\":695:821   */\n  swap2\n  swap1\n  pop\n  jump\t// out\n    /* \"#utility.yul\":827:923   */\ntag_22:\n    /* \"#utility.yul\":864:871   */\n  0x00\n    /* \"#utility.yul\":893:917   */\n  tag_39\n    /* \"#utility.yul\":911:916   */\n  dup3\n    /* \"#utility.yul\":893:917   */\n  tag_21\n  jump\t// in\ntag_39:\n    /* \"#utility.yul\":882:917   */\n  swap1\n  pop\n    /* \"#utility.yul\":827:923   */\n  swap2\n  swap1\n  pop\n  jump\t// out\n    /* \"#utility.yul\":929:1039   */\ntag_23:\n    /* \"#utility.yul\":980:987   */\n  0x00\n    /* \"#utility.yul\":1009:1033   */\n  tag_41\n    /* \"#utility.yul\":1027:1032   */\n  dup3\n    /* \"#utility.yul\":1009:1033   */\n  tag_22\n  jump\t// in\ntag_41:\n    /* \"#utility.yul\":998:1033   */\n  swap1\n  pop\n    /* \"#utility.yul\":929:1039   */\n  swap2\n  swap1\n  pop\n  jump\t// out\n    /* \"#utility.yul\":1045:1195   */\ntag_24:\n    /* \"#utility.yul\":1132:1170   */\n  tag_43\n    /* \"#utility.yul\":1164:1169   */\n  dup2\n    /* \"#utility.yul\":1132:1170   */\n  tag_23\n  jump\t// in\ntag_43:\n    /* \"#utility.yul\":1125:1130   */\n  dup2\n    /* \"#utility.yul\":1122:1171   */\n  eq\n    /* \"#utility.yul\":1112:1189   */\n  tag_44\n  jumpi\n    /* \"#utility.yul\":1185:1186   */\n  0x00\n    /* \"#utility.yul\":1182:1183   */\n  dup1\n    /* \"#utility.yul\":1175:1187   */\n  revert\n    /* \"#utility.yul\":1112:1189   */\ntag_44:\n    /* \"#utility.yul\":1045:1195   */\n  pop\n  jump\t// out\n    /* \"#utility.yul\":1201:1372   */\ntag_25:\n    /* \"#utility.yul\":1272:1277   */\n  0x00\n    /* \"#utility.yul\":1303:1309   */\n  dup2\n    /* \"#utility.yul\":1297:1310   */\n  mload\n    /* \"#utility.yul\":1288:1310   */\n  swap1\n  pop\n    /* \"#utility.yul\":1319:1366   */\n  tag_46\n    /* \"#utility.yul\":1360:1365   */\n  dup2\n    /* \"#utility.yul\":1319:1366   */\n  tag_24\n  jump\t// in\ntag_46:\n    /* \"#utility.yul\":1201:1372   */\n  swap3\n  swap2\n  pop\n  pop\n  jump\t// out\n    /* \"#utility.yul\":1378:1909   */\ntag_3:\n    /* \"#utility.yul\":1469:1475   */\n  0x00\n    /* \"#utility.yul\":1477:1483   */\n  dup1\n    /* \"#utility.yul\":1526:1528   */\n  0x40\n    /* \"#utility.yul\":1514:1523   */\n  dup4\n    /* \"#utility.yul\":1505:1512   */\n  dup6\n    /* \"#utility.yul\":1501:1524   */\n  sub\n    /* \"#utility.yul\":1497:1529   */\n  slt\n    /* \"#utility.yul\":1494:1613   */\n  iszero\n  tag_48\n  jumpi\n    /* \"#utility.yul\":1532:1611   */\n  tag_49\n  tag_16\n  jump\t// in\ntag_49:\n    /* \"#utility.yul\":1494:1613   */\ntag_48:\n    /* \"#utility.yul\":1652:1653   */\n  0x00\n    /* \"#utility.yul\":1677:1739   */\n  tag_50\n    /* \"#utility.yul\":1731:1738   */\n  dup6\n    /* \"#utility.yul\":1722:1728   */\n  dup3\n    /* \"#utility.yul\":1711:1720   */\n  dup7\n    /* \"#utility.yul\":1707:1729   */\n  add\n    /* \"#utility.yul\":1677:1739   */\n  tag_20\n  jump\t// in\ntag_50:\n    /* \"#utility.yul\":1667:1739   */\n  swap3\n  pop\n    /* \"#utility.yul\":1623:1749   */\n  pop\n    /* \"#utility.yul\":1788:1790   */\n  0x20\n    /* \"#utility.yul\":1814:1892   */\n  tag_51\n    /* \"#utility.yul\":1884:1891   */\n  dup6\n    /* \"#utility.yul\":1875:1881   */\n  dup3\n    /* \"#utility.yul\":1864:1873   */\n  dup7\n    /* \"#utility.yul\":1860:1882   */\n  add\n    /* \"#utility.yul\":1814:1892   */\n  tag_25\n  jump\t// in\ntag_51:\n    /* \"#utility.yul\":1804:1892   */\n  swap2\n  pop\n    /* \"#utility.yul\":1759:1902   */\n  pop\n    /* \"#utility.yul\":1378:1909   */\n  swap3\n  pop\n  swap3\n  swap1\n  pop\n  jump\t// out\n    /* \"#utility.yul\":1915:2033   */\ntag_26:\n    /* \"#utility.yul\":2002:2026   */\n  tag_53\n    /* \"#utility.yul\":2020:2025   */\n  dup2\n    /* \"#utility.yul\":2002:2026   */\n  tag_22\n  jump\t// in\ntag_53:\n    /* \"#utility.yul\":1997:2000   */\n  dup3\n    /* \"#utility.yul\":1990:2027   */\n  mstore\n    /* \"#utility.yul\":1915:2033   */\n  pop\n  pop\n  jump\t// out\n    /* \"#utility.yul\":2039:2261   */\ntag_9:\n    /* \"#utility.yul\":2132:2136   */\n  0x00\n    /* \"#utility.yul\":2170:2172   */\n  0x20\n    /* \"#utility.yul\":2159:2168   */\n  dup3\n    /* \"#utility.yul\":2155:2173   */\n  add\n    /* \"#utility.yul\":2147:2173   */\n  swap1\n  pop\n    /* \"#utility.yul\":2183:2254   */\n  tag_55\n    /* \"#utility.yul\":2251:2252   */\n  0x00\n    /* \"#utility.yul\":2240:2249   */\n  dup4\n    /* \"#utility.yul\":2236:2253   */\n  add\n    /* \"#utility.yul\":2227:2233   */\n  dup5\n    /* \"#utility.yul\":2183:2254   */\n  tag_26\n  jump\t// in\ntag_55:\n    /* \"#utility.yul\":2039:2261   */\n  swap3\n  swap2\n  pop\n  pop\n  jump\t// out\n    /* \"contracts/Affiliate.sol\":168:3099  contract AffiliateProgram is Ownable {... */\ntag_13:\n  dataSize(sub_0)\n  dup1\n  dataOffset(sub_0)\n  0x00\n  codecopy\n  0x00\n  return\nstop\n\nsub_0: assembly {\n        /* \"contracts/Affiliate.sol\":168:3099  contract AffiliateProgram is Ownable {... */\n      mstore(0x40, 0x80)\n      callvalue\n      dup1\n      iszero\n      tag_1\n      jumpi\n      0x00\n      dup1\n      revert\n    tag_1:\n      pop\n      jumpi(tag_2, lt(calldatasize, 0x04))\n      shr(0xe0, calldataload(0x00))\n      dup1\n      0x88576dc9\n      gt\n      tag_14\n      jumpi\n      dup1\n      0x88576dc9\n      eq\n      tag_8\n      jumpi\n      dup1\n      0x8aa58799\n      eq\n      tag_9\n      jumpi\n      dup1\n      0x8da5cb5b\n      eq\n      tag_10\n      jumpi\n      dup1\n      0xf2fde38b\n      eq\n      tag_11\n      jumpi\n      dup1\n      0xf873aff3\n      eq\n      tag_12\n      jumpi\n      dup1\n      0xfc0c546a\n      eq\n      tag_13\n      jumpi\n      jump(tag_2)\n    tag_14:\n      dup1\n      0x3e25e837\n      eq\n      tag_3\n      jumpi\n      dup1\n      0x438c3bcd\n      eq\n      tag_4\n      jumpi\n      dup1\n      0x4f51e294\n      eq\n      tag_5\n      jumpi\n      dup1\n      0x5ea1d6f8\n      eq\n      tag_6\n      jumpi\n      dup1\n      0x715018a6\n      eq\n      tag_7\n      jumpi\n    tag_2:\n      0x00\n      dup1\n      revert\n        /* \"contracts/Affiliate.sol\":2482:2934  function withdrawCommission() external {... */\n    tag_3:\n      tag_15\n      tag_16\n      jump\t// in\n    tag_15:\n      stop\n        /* \"contracts/Affiliate.sol\":855:1036  function registerAsAffiliate(address _affiliateAddress) external {... */\n    tag_4:\n      tag_17\n      0x04\n      dup1\n      calldatasize\n      sub\n      dup2\n      add\n      swap1\n      tag_18\n      swap2\n      swap1\n      tag_19\n      jump\t// in\n    tag_18:\n      tag_20\n      jump\t// in\n    tag_17:\n      stop\n        /* \"contracts/Affiliate.sol\":399:442  mapping(address => uint8) public affiliates */\n    tag_5:\n      tag_21\n      0x04\n      dup1\n      calldatasize\n      sub\n      dup2\n      add\n      swap1\n      tag_22\n      swap2\n      swap1\n      tag_19\n      jump\t// in\n    tag_22:\n      tag_23\n      jump\t// in\n    tag_21:\n      mload(0x40)\n      tag_24\n      swap2\n      swap1\n      tag_25\n      jump\t// in\n    tag_24:\n      mload(0x40)\n      dup1\n      swap2\n      sub\n      swap1\n      return\n        /* \"contracts/Affiliate.sol\":211:238  uint8 public commissionRate */\n    tag_6:\n      tag_26\n      tag_27\n      jump\t// in\n    tag_26:\n      mload(0x40)\n      tag_28\n      swap2\n      swap1\n      tag_25\n      jump\t// in\n    tag_28:\n      mload(0x40)\n      dup1\n      swap2\n      sub\n      swap1\n      return\n        /* \"@openzeppelin/contracts/access/Ownable.sol\":2293:2394  function renounceOwnership() public virtual onlyOwner {... */\n    tag_7:\n      tag_29\n      tag_30\n      jump\t// in\n    tag_29:\n      stop\n        /* \"contracts/Affiliate.sol\":2940:3097  function changeCommissionRate(uint8 _newRate) external onlyOwner {... */\n    tag_8:\n      tag_31\n      0x04\n      dup1\n      calldatasize\n      sub\n      dup2\n      add\n      swap1\n      tag_32\n      swap2\n      swap1\n      tag_33\n      jump\t// in\n    tag_32:\n      tag_34\n      jump\t// in\n    tag_31:\n      stop\n        /* \"contracts/Affiliate.sol\":448:504  mapping(address => uint256) public accumulatedCommission */\n    tag_9:\n      tag_35\n      0x04\n      dup1\n      calldatasize\n      sub\n      dup2\n      add\n      swap1\n      tag_36\n      swap2\n      swap1\n      tag_19\n      jump\t// in\n    tag_36:\n      tag_37\n      jump\t// in\n    tag_35:\n      mload(0x40)\n      tag_38\n      swap2\n      swap1\n      tag_39\n      jump\t// in\n    tag_38:\n      mload(0x40)\n      dup1\n      swap2\n      sub\n      swap1\n      return\n        /* \"@openzeppelin/contracts/access/Ownable.sol\":1638:1723  function owner() public view virtual returns (address) {... */\n    tag_10:\n      tag_40\n      tag_41\n      jump\t// in\n    tag_40:\n      mload(0x40)\n      tag_42\n      swap2\n      swap1\n      tag_43\n      jump\t// in\n    tag_42:\n      mload(0x40)\n      dup1\n      swap2\n      sub\n      swap1\n      return\n        /* \"@openzeppelin/contracts/access/Ownable.sol\":2543:2758  function transferOwnership(address newOwner) public virtual onlyOwner {... */\n    tag_11:\n      tag_44\n      0x04\n      dup1\n      calldatasize\n      sub\n      dup2\n      add\n      swap1\n      tag_45\n      swap2\n      swap1\n      tag_19\n      jump\t// in\n    tag_45:\n      tag_46\n      jump\t// in\n    tag_44:\n      stop\n        /* \"contracts/Affiliate.sol\":1708:2476  function addCommissionByOwner(... */\n    tag_12:\n      tag_47\n      0x04\n      dup1\n      calldatasize\n      sub\n      dup2\n      add\n      swap1\n      tag_48\n      swap2\n      swap1\n      tag_49\n      jump\t// in\n    tag_48:\n      tag_50\n      jump\t// in\n    tag_47:\n      stop\n        /* \"contracts/Affiliate.sol\":244:263  IERC20 public token */\n    tag_13:\n      tag_51\n      tag_52\n      jump\t// in\n    tag_51:\n      mload(0x40)\n      tag_53\n      swap2\n      swap1\n      tag_54\n      jump\t// in\n    tag_53:\n      mload(0x40)\n      dup1\n      swap2\n      sub\n      swap1\n      return\n        /* \"contracts/Affiliate.sol\":2482:2934  function withdrawCommission() external {... */\n    tag_16:\n        /* \"contracts/Affiliate.sol\":2531:2549  uint256 commission */\n      0x00\n        /* \"contracts/Affiliate.sol\":2552:2573  accumulatedCommission */\n      0x03\n        /* \"contracts/Affiliate.sol\":2552:2585  accumulatedCommission[msg.sender] */\n      0x00\n        /* \"contracts/Affiliate.sol\":2574:2584  msg.sender */\n      caller\n        /* \"contracts/Affiliate.sol\":2552:2585  accumulatedCommission[msg.sender] */\n      0xffffffffffffffffffffffffffffffffffffffff\n      and\n      0xffffffffffffffffffffffffffffffffffffffff\n      and\n      dup2\n      mstore\n      0x20\n      add\n      swap1\n      dup2\n      mstore\n      0x20\n      add\n      0x00\n      keccak256\n      sload\n        /* \"contracts/Affiliate.sol\":2531:2585  uint256 commission = accumulatedCommission[msg.sender] */\n      swap1\n      pop\n        /* \"contracts/Affiliate.sol\":2616:2617  0 */\n      0x00\n        /* \"contracts/Affiliate.sol\":2603:2613  commission */\n      dup2\n        /* \"contracts/Affiliate.sol\":2603:2617  commission > 0 */\n      gt\n        /* \"contracts/Affiliate.sol\":2595:2647  require(commission > 0, \"No commission to withdraw\") */\n      tag_56\n      jumpi\n      mload(0x40)\n      0x08c379a000000000000000000000000000000000000000000000000000000000\n      dup2\n      mstore\n      0x04\n      add\n      tag_57\n      swap1\n      tag_58\n      jump\t// in\n    tag_57:\n      mload(0x40)\n      dup1\n      swap2\n      sub\n      swap1\n      revert\n    tag_56:\n        /* \"contracts/Affiliate.sol\":2711:2721  commission */\n      dup1\n        /* \"contracts/Affiliate.sol\":2678:2683  token */\n      0x01\n      0x00\n      swap1\n      sload\n      swap1\n      0x0100\n      exp\n      swap1\n      div\n      0xffffffffffffffffffffffffffffffffffffffff\n      and\n        /* \"contracts/Affiliate.sol\":2678:2693  token.balanceOf */\n      0xffffffffffffffffffffffffffffffffffffffff\n      and\n      0x70a08231\n        /* \"contracts/Affiliate.sol\":2702:2706  this */\n      address\n        /* \"contracts/Affiliate.sol\":2678:2708  token.balanceOf(address(this)) */\n      mload(0x40)\n      dup3\n      0xffffffff\n      and\n      0xe0\n      shl\n      dup2\n      mstore\n      0x04\n      add\n      tag_59\n      swap2\n      swap1\n      tag_43\n      jump\t// in\n    tag_59:\n      0x20\n      mload(0x40)\n      dup1\n      dup4\n      sub\n      dup2\n      dup7\n      gas\n      staticcall\n      iszero\n      dup1\n      iszero\n      tag_61\n      jumpi\n      returndatasize\n      0x00\n      dup1\n      returndatacopy\n      revert(0x00, returndatasize)\n    tag_61:\n      pop\n      pop\n      pop\n      pop\n      mload(0x40)\n      returndatasize\n      not(0x1f)\n      0x1f\n      dup3\n      add\n      and\n      dup3\n      add\n      dup1\n      0x40\n      mstore\n      pop\n      dup2\n      add\n      swap1\n      tag_62\n      swap2\n      swap1\n      tag_63\n      jump\t// in\n    tag_62:\n        /* \"contracts/Affiliate.sol\":2678:2721  token.balanceOf(address(this)) > commission */\n      gt\n        /* \"contracts/Affiliate.sol\":2657:2775  require(... */\n      tag_64\n      jumpi\n      mload(0x40)\n      0x08c379a000000000000000000000000000000000000000000000000000000000\n      dup2\n      mstore\n      0x04\n      add\n      tag_65\n      swap1\n      tag_66\n      jump\t// in\n    tag_65:\n      mload(0x40)\n      dup1\n      swap2\n      sub\n      swap1\n      revert\n    tag_64:\n        /* \"contracts/Affiliate.sol\":2821:2822  0 */\n      0x00\n        /* \"contracts/Affiliate.sol\":2785:2806  accumulatedCommission */\n      0x03\n        /* \"contracts/Affiliate.sol\":2785:2818  accumulatedCommission[msg.sender] */\n      0x00\n        /* \"contracts/Affiliate.sol\":2807:2817  msg.sender */\n      caller\n        /* \"contracts/Affiliate.sol\":2785:2818  accumulatedCommission[msg.sender] */\n      0xffffffffffffffffffffffffffffffffffffffff\n      and\n      0xffffffffffffffffffffffffffffffffffffffff\n      and\n      dup2\n      mstore\n      0x20\n      add\n      swap1\n      dup2\n      mstore\n      0x20\n      add\n      0x00\n      keccak256\n        /* \"contracts/Affiliate.sol\":2785:2822  accumulatedCommission[msg.sender] = 0 */\n      dup2\n      swap1\n      sstore\n      pop\n        /* \"contracts/Affiliate.sol\":2832:2837  token */\n      0x01\n      0x00\n      swap1\n      sload\n      swap1\n      0x0100\n      exp\n      swap1\n      div\n      0xffffffffffffffffffffffffffffffffffffffff\n      and\n        /* \"contracts/Affiliate.sol\":2832:2846  token.transfer */\n      0xffffffffffffffffffffffffffffffffffffffff\n      and\n      0xa9059cbb\n        /* \"contracts/Affiliate.sol\":2847:2857  msg.sender */\n      caller\n        /* \"contracts/Affiliate.sol\":2859:2869  commission */\n      dup4\n        /* \"contracts/Affiliate.sol\":2832:2870  token.transfer(msg.sender, commission) */\n      mload(0x40)\n      dup4\n      0xffffffff\n      and\n      0xe0\n      shl\n      dup2\n      mstore\n      0x04\n      add\n      tag_67\n      swap3\n      swap2\n      swap1\n      tag_68\n      jump\t// in\n    tag_67:\n      0x20\n      mload(0x40)\n      dup1\n      dup4\n      sub\n      dup2\n      0x00\n      dup8\n      gas\n      call\n      iszero\n      dup1\n      iszero\n      tag_70\n      jumpi\n      returndatasize\n      0x00\n      dup1\n      returndatacopy\n      revert(0x00, returndatasize)\n    tag_70:\n      pop\n      pop\n      pop\n      pop\n      mload(0x40)\n      returndatasize\n      not(0x1f)\n      0x1f\n      dup3\n      add\n      and\n      dup3\n      add\n      dup1\n      0x40\n      mstore\n      pop\n      dup2\n      add\n      swap1\n      tag_71\n      swap2\n      swap1\n      tag_72\n      jump\t// in\n    tag_71:\n      pop\n        /* \"contracts/Affiliate.sol\":2904:2914  msg.sender */\n      caller\n        /* \"contracts/Affiliate.sol\":2885:2927  WithdrawCommission(msg.sender, commission) */\n      0xffffffffffffffffffffffffffffffffffffffff\n      and\n      0x2a016beab1c9536945a8f4c51b734f24f9d1458b765600efdabb6a3c52251e75\n        /* \"contracts/Affiliate.sol\":2916:2926  commission */\n      dup3\n        /* \"contracts/Affiliate.sol\":2885:2927  WithdrawCommission(msg.sender, commission) */\n      mload(0x40)\n      tag_73\n      swap2\n      swap1\n      tag_39\n      jump\t// in\n    tag_73:\n      mload(0x40)\n      dup1\n      swap2\n      sub\n      swap1\n      log2\n        /* \"contracts/Affiliate.sol\":2521:2934  {... */\n      pop\n        /* \"contracts/Affiliate.sol\":2482:2934  function withdrawCommission() external {... */\n      jump\t// out\n        /* \"contracts/Affiliate.sol\":855:1036  function registerAsAffiliate(address _affiliateAddress) external {... */\n    tag_20:\n        /* \"contracts/Affiliate.sol\":962:976  commissionRate */\n      0x00\n      0x14\n      swap1\n      sload\n      swap1\n      0x0100\n      exp\n      swap1\n      div\n      0xff\n      and\n        /* \"contracts/Affiliate.sol\":930:940  affiliates */\n      0x02\n        /* \"contracts/Affiliate.sol\":930:959  affiliates[_affiliateAddress] */\n      0x00\n        /* \"contracts/Affiliate.sol\":941:958  _affiliateAddress */\n      dup4\n        /* \"contracts/Affiliate.sol\":930:959  affiliates[_affiliateAddress] */\n      0xffffffffffffffffffffffffffffffffffffffff\n      and\n      0xffffffffffffffffffffffffffffffffffffffff\n      and\n      dup2\n      mstore\n      0x20\n      add\n      swap1\n      dup2\n      mstore\n      0x20\n      add\n      0x00\n      keccak256\n      0x00\n        /* \"contracts/Affiliate.sol\":930:976  affiliates[_affiliateAddress] = commissionRate */\n      0x0100\n      exp\n      dup2\n      sload\n      dup2\n      0xff\n      mul\n      not\n      and\n      swap1\n      dup4\n      0xff\n      and\n      mul\n      or\n      swap1\n      sstore\n      pop\n        /* \"contracts/Affiliate.sol\":1011:1028  _affiliateAddress */\n      dup1\n        /* \"contracts/Affiliate.sol\":991:1029  AffiliateRegistered(_affiliateAddress) */\n      0xffffffffffffffffffffffffffffffffffffffff\n      and\n      0x53286125aa034acaf4eb8a0931fe01b25caceba942ab407c6ce09e1b0dfab58c\n      mload(0x40)\n      mload(0x40)\n      dup1\n      swap2\n      sub\n      swap1\n      log2\n        /* \"contracts/Affiliate.sol\":855:1036  function registerAsAffiliate(address _affiliateAddress) external {... */\n      pop\n      jump\t// out\n        /* \"contracts/Affiliate.sol\":399:442  mapping(address => uint8) public affiliates */\n    tag_23:\n      mstore(0x20, 0x02)\n      dup1\n      0x00\n      mstore\n      keccak256(0x00, 0x40)\n      0x00\n      swap2\n      pop\n      sload\n      swap1\n      0x0100\n      exp\n      swap1\n      div\n      0xff\n      and\n      dup2\n      jump\t// out\n        /* \"contracts/Affiliate.sol\":211:238  uint8 public commissionRate */\n    tag_27:\n      0x00\n      0x14\n      swap1\n      sload\n      swap1\n      0x0100\n      exp\n      swap1\n      div\n      0xff\n      and\n      dup2\n      jump\t// out\n        /* \"@openzeppelin/contracts/access/Ownable.sol\":2293:2394  function renounceOwnership() public virtual onlyOwner {... */\n    tag_30:\n        /* \"@openzeppelin/contracts/access/Ownable.sol\":1531:1544  _checkOwner() */\n      tag_76\n        /* \"@openzeppelin/contracts/access/Ownable.sol\":1531:1542  _checkOwner */\n      tag_77\n        /* \"@openzeppelin/contracts/access/Ownable.sol\":1531:1544  _checkOwner() */\n      jump\t// in\n    tag_76:\n        /* \"@openzeppelin/contracts/access/Ownable.sol\":2357:2387  _transferOwnership(address(0)) */\n      tag_79\n        /* \"@openzeppelin/contracts/access/Ownable.sol\":2384:2385  0 */\n      0x00\n        /* \"@openzeppelin/contracts/access/Ownable.sol\":2357:2375  _transferOwnership */\n      tag_80\n        /* \"@openzeppelin/contracts/access/Ownable.sol\":2357:2387  _transferOwnership(address(0)) */\n      jump\t// in\n    tag_79:\n        /* \"@openzeppelin/contracts/access/Ownable.sol\":2293:2394  function renounceOwnership() public virtual onlyOwner {... */\n      jump\t// out\n        /* \"contracts/Affiliate.sol\":2940:3097  function changeCommissionRate(uint8 _newRate) external onlyOwner {... */\n    tag_34:\n        /* \"@openzeppelin/contracts/access/Ownable.sol\":1531:1544  _checkOwner() */\n      tag_82\n        /* \"@openzeppelin/contracts/access/Ownable.sol\":1531:1542  _checkOwner */\n      tag_77\n        /* \"@openzeppelin/contracts/access/Ownable.sol\":1531:1544  _checkOwner() */\n      jump\t// in\n    tag_82:\n        /* \"contracts/Affiliate.sol\":3032:3040  _newRate */\n      dup1\n        /* \"contracts/Affiliate.sol\":3015:3029  commissionRate */\n      0x00\n      0x14\n        /* \"contracts/Affiliate.sol\":3015:3040  commissionRate = _newRate */\n      0x0100\n      exp\n      dup2\n      sload\n      dup2\n      0xff\n      mul\n      not\n      and\n      swap1\n      dup4\n      0xff\n      and\n      mul\n      or\n      swap1\n      sstore\n      pop\n        /* \"contracts/Affiliate.sol\":3055:3090  ChangeCommisionRate(commissionRate) */\n      0x33bedb18f5997e509fda05045e1279f45fd9c53ef8cb47f4b170f74cc63bccac\n        /* \"contracts/Affiliate.sol\":3075:3089  commissionRate */\n      0x00\n      0x14\n      swap1\n      sload\n      swap1\n      0x0100\n      exp\n      swap1\n      div\n      0xff\n      and\n        /* \"contracts/Affiliate.sol\":3055:3090  ChangeCommisionRate(commissionRate) */\n      mload(0x40)\n      tag_84\n      swap2\n      swap1\n      tag_25\n      jump\t// in\n    tag_84:\n      mload(0x40)\n      dup1\n      swap2\n      sub\n      swap1\n      log1\n        /* \"contracts/Affiliate.sol\":2940:3097  function changeCommissionRate(uint8 _newRate) external onlyOwner {... */\n      pop\n      jump\t// out\n        /* \"contracts/Affiliate.sol\":448:504  mapping(address => uint256) public accumulatedCommission */\n    tag_37:\n      mstore(0x20, 0x03)\n      dup1\n      0x00\n      mstore\n      keccak256(0x00, 0x40)\n      0x00\n      swap2\n      pop\n      swap1\n      pop\n      sload\n      dup2\n      jump\t// out\n        /* \"@openzeppelin/contracts/access/Ownable.sol\":1638:1723  function owner() public view virtual returns (address) {... */\n    tag_41:\n        /* \"@openzeppelin/contracts/access/Ownable.sol\":1684:1691  address */\n      0x00\n        /* \"@openzeppelin/contracts/access/Ownable.sol\":1710:1716  _owner */\n      dup1\n      0x00\n      swap1\n      sload\n      swap1\n      0x0100\n      exp\n      swap1\n      div\n      0xffffffffffffffffffffffffffffffffffffffff\n      and\n        /* \"@openzeppelin/contracts/access/Ownable.sol\":1703:1716  return _owner */\n      swap1\n      pop\n        /* \"@openzeppelin/contracts/access/Ownable.sol\":1638:1723  function owner() public view virtual returns (address) {... */\n      swap1\n      jump\t// out\n        /* \"@openzeppelin/contracts/access/Ownable.sol\":2543:2758  function transferOwnership(address newOwner) public virtual onlyOwner {... */\n    tag_46:\n        /* \"@openzeppelin/contracts/access/Ownable.sol\":1531:1544  _checkOwner() */\n      tag_87\n        /* \"@openzeppelin/contracts/access/Ownable.sol\":1531:1542  _checkOwner */\n      tag_77\n        /* \"@openzeppelin/contracts/access/Ownable.sol\":1531:1544  _checkOwner() */\n      jump\t// in\n    tag_87:\n        /* \"@openzeppelin/contracts/access/Ownable.sol\":2647:2648  0 */\n      0x00\n        /* \"@openzeppelin/contracts/access/Ownable.sol\":2627:2649  newOwner == address(0) */\n      0xffffffffffffffffffffffffffffffffffffffff\n      and\n        /* \"@openzeppelin/contracts/access/Ownable.sol\":2627:2635  newOwner */\n      dup2\n        /* \"@openzeppelin/contracts/access/Ownable.sol\":2627:2649  newOwner == address(0) */\n      0xffffffffffffffffffffffffffffffffffffffff\n      and\n      sub\n        /* \"@openzeppelin/contracts/access/Ownable.sol\":2623:2714  if (newOwner == address(0)) {... */\n      tag_89\n      jumpi\n        /* \"@openzeppelin/contracts/access/Ownable.sol\":2700:2701  0 */\n      0x00\n        /* \"@openzeppelin/contracts/access/Ownable.sol\":2672:2703  OwnableInvalidOwner(address(0)) */\n      mload(0x40)\n      0x1e4fbdf700000000000000000000000000000000000000000000000000000000\n      dup2\n      mstore\n      0x04\n      add\n      tag_90\n      swap2\n      swap1\n      tag_43\n      jump\t// in\n    tag_90:\n      mload(0x40)\n      dup1\n      swap2\n      sub\n      swap1\n      revert\n        /* \"@openzeppelin/contracts/access/Ownable.sol\":2623:2714  if (newOwner == address(0)) {... */\n    tag_89:\n        /* \"@openzeppelin/contracts/access/Ownable.sol\":2723:2751  _transferOwnership(newOwner) */\n      tag_91\n        /* \"@openzeppelin/contracts/access/Ownable.sol\":2742:2750  newOwner */\n      dup2\n        /* \"@openzeppelin/contracts/access/Ownable.sol\":2723:2741  _transferOwnership */\n      tag_80\n        /* \"@openzeppelin/contracts/access/Ownable.sol\":2723:2751  _transferOwnership(newOwner) */\n      jump\t// in\n    tag_91:\n        /* \"@openzeppelin/contracts/access/Ownable.sol\":2543:2758  function transferOwnership(address newOwner) public virtual onlyOwner {... */\n      pop\n      jump\t// out\n        /* \"contracts/Affiliate.sol\":1708:2476  function addCommissionByOwner(... */\n    tag_50:\n        /* \"@openzeppelin/contracts/access/Ownable.sol\":1531:1544  _checkOwner() */\n      tag_93\n        /* \"@openzeppelin/contracts/access/Ownable.sol\":1531:1542  _checkOwner */\n      tag_77\n        /* \"@openzeppelin/contracts/access/Ownable.sol\":1531:1544  _checkOwner() */\n      jump\t// in\n    tag_93:\n        /* \"contracts/Affiliate.sol\":1876:1877  0 */\n      0x00\n        /* \"contracts/Affiliate.sol\":1861:1873  _boughtValue */\n      dup3\n        /* \"contracts/Affiliate.sol\":1861:1877  _boughtValue > 0 */\n      gt\n        /* \"contracts/Affiliate.sol\":1853:1919  require(_boughtValue > 0, \"Purchase value must be greater than 0\") */\n      tag_95\n      jumpi\n      mload(0x40)\n      0x08c379a000000000000000000000000000000000000000000000000000000000\n      dup2\n      mstore\n      0x04\n      add\n      tag_96\n      swap1\n      tag_97\n      jump\t// in\n    tag_96:\n      mload(0x40)\n      dup1\n      swap2\n      sub\n      swap1\n      revert\n    tag_95:\n        /* \"contracts/Affiliate.sol\":1964:1970  _buyer */\n      dup1\n        /* \"contracts/Affiliate.sol\":1950:1970  _affiliate != _buyer */\n      0xffffffffffffffffffffffffffffffffffffffff\n      and\n        /* \"contracts/Affiliate.sol\":1950:1960  _affiliate */\n      dup4\n        /* \"contracts/Affiliate.sol\":1950:1970  _affiliate != _buyer */\n      0xffffffffffffffffffffffffffffffffffffffff\n      and\n      sub\n        /* \"contracts/Affiliate.sol\":1929:2036  require(... */\n      tag_98\n      jumpi\n      mload(0x40)\n      0x08c379a000000000000000000000000000000000000000000000000000000000\n      dup2\n      mstore\n      0x04\n      add\n      tag_99\n      swap1\n      tag_100\n      jump\t// in\n    tag_99:\n      mload(0x40)\n      dup1\n      swap2\n      sub\n      swap1\n      revert\n    tag_98:\n        /* \"contracts/Affiliate.sol\":2084:2085  0 */\n      0x00\n        /* \"contracts/Affiliate.sol\":2058:2068  affiliates */\n      0x02\n        /* \"contracts/Affiliate.sol\":2058:2080  affiliates[_affiliate] */\n      0x00\n        /* \"contracts/Affiliate.sol\":2069:2079  _affiliate */\n      dup6\n        /* \"contracts/Affiliate.sol\":2058:2080  affiliates[_affiliate] */\n      0xffffffffffffffffffffffffffffffffffffffff\n      and\n      0xffffffffffffffffffffffffffffffffffffffff\n      and\n      dup2\n      mstore\n      0x20\n      add\n      swap1\n      dup2\n      mstore\n      0x20\n      add\n      0x00\n      keccak256\n      0x00\n      swap1\n      sload\n      swap1\n      0x0100\n      exp\n      swap1\n      div\n      0xff\n      and\n        /* \"contracts/Affiliate.sol\":2058:2085  affiliates[_affiliate] == 0 */\n      0xff\n      and\n      sub\n        /* \"contracts/Affiliate.sol\":2055:2150  if(affiliates[_affiliate] == 0){... */\n      tag_101\n      jumpi\n        /* \"contracts/Affiliate.sol\":2125:2139  commissionRate */\n      0x00\n      0x14\n      swap1\n      sload\n      swap1\n      0x0100\n      exp\n      swap1\n      div\n      0xff\n      and\n        /* \"contracts/Affiliate.sol\":2100:2110  affiliates */\n      0x02\n        /* \"contracts/Affiliate.sol\":2100:2122  affiliates[_affiliate] */\n      0x00\n        /* \"contracts/Affiliate.sol\":2111:2121  _affiliate */\n      dup6\n        /* \"contracts/Affiliate.sol\":2100:2122  affiliates[_affiliate] */\n      0xffffffffffffffffffffffffffffffffffffffff\n      and\n      0xffffffffffffffffffffffffffffffffffffffff\n      and\n      dup2\n      mstore\n      0x20\n      add\n      swap1\n      dup2\n      mstore\n      0x20\n      add\n      0x00\n      keccak256\n      0x00\n        /* \"contracts/Affiliate.sol\":2100:2139  affiliates[_affiliate] = commissionRate */\n      0x0100\n      exp\n      dup2\n      sload\n      dup2\n      0xff\n      mul\n      not\n      and\n      swap1\n      dup4\n      0xff\n      and\n      mul\n      or\n      swap1\n      sstore\n      pop\n        /* \"contracts/Affiliate.sol\":2055:2150  if(affiliates[_affiliate] == 0){... */\n    tag_101:\n        /* \"contracts/Affiliate.sol\":2160:2178  uint256 commission */\n      0x00\n        /* \"contracts/Affiliate.sol\":2223:2226  100 */\n      0x64\n        /* \"contracts/Affiliate.sol\":2197:2207  affiliates */\n      0x02\n        /* \"contracts/Affiliate.sol\":2197:2219  affiliates[_affiliate] */\n      0x00\n        /* \"contracts/Affiliate.sol\":2208:2218  _affiliate */\n      dup7\n        /* \"contracts/Affiliate.sol\":2197:2219  affiliates[_affiliate] */\n      0xffffffffffffffffffffffffffffffffffffffff\n      and\n      0xffffffffffffffffffffffffffffffffffffffff\n      and\n      dup2\n      mstore\n      0x20\n      add\n      swap1\n      dup2\n      mstore\n      0x20\n      add\n      0x00\n      keccak256\n      0x00\n      swap1\n      sload\n      swap1\n      0x0100\n      exp\n      swap1\n      div\n      0xff\n      and\n        /* \"contracts/Affiliate.sol\":2182:2219  _boughtValue * affiliates[_affiliate] */\n      0xff\n      and\n        /* \"contracts/Affiliate.sol\":2182:2194  _boughtValue */\n      dup5\n        /* \"contracts/Affiliate.sol\":2182:2219  _boughtValue * affiliates[_affiliate] */\n      tag_102\n      swap2\n      swap1\n      tag_103\n      jump\t// in\n    tag_102:\n        /* \"contracts/Affiliate.sol\":2181:2226  (_boughtValue * affiliates[_affiliate]) / 100 */\n      tag_104\n      swap2\n      swap1\n      tag_105\n      jump\t// in\n    tag_104:\n        /* \"contracts/Affiliate.sol\":2160:2226  uint256 commission = (_boughtValue * affiliates[_affiliate]) / 100 */\n      swap1\n      pop\n        /* \"contracts/Affiliate.sol\":2273:2283  commission */\n      dup1\n        /* \"contracts/Affiliate.sol\":2236:2257  accumulatedCommission */\n      0x03\n        /* \"contracts/Affiliate.sol\":2236:2269  accumulatedCommission[_affiliate] */\n      0x00\n        /* \"contracts/Affiliate.sol\":2258:2268  _affiliate */\n      dup7\n        /* \"contracts/Affiliate.sol\":2236:2269  accumulatedCommission[_affiliate] */\n      0xffffffffffffffffffffffffffffffffffffffff\n      and\n      0xffffffffffffffffffffffffffffffffffffffff\n      and\n      dup2\n      mstore\n      0x20\n      add\n      swap1\n      dup2\n      mstore\n      0x20\n      add\n      0x00\n      keccak256\n      0x00\n        /* \"contracts/Affiliate.sol\":2236:2283  accumulatedCommission[_affiliate] += commission */\n      dup3\n      dup3\n      sload\n      tag_106\n      swap2\n      swap1\n      tag_107\n      jump\t// in\n    tag_106:\n      swap3\n      pop\n      pop\n      dup2\n      swap1\n      sstore\n      pop\n        /* \"contracts/Affiliate.sol\":2293:2298  token */\n      0x01\n      0x00\n      swap1\n      sload\n      swap1\n      0x0100\n      exp\n      swap1\n      div\n      0xffffffffffffffffffffffffffffffffffffffff\n      and\n        /* \"contracts/Affiliate.sol\":2293:2307  token.transfer */\n      0xffffffffffffffffffffffffffffffffffffffff\n      and\n      0xa9059cbb\n        /* \"contracts/Affiliate.sol\":2308:2314  _buyer */\n      dup4\n        /* \"contracts/Affiliate.sol\":2316:2328  _boughtValue */\n      dup6\n        /* \"contracts/Affiliate.sol\":2293:2329  token.transfer(_buyer, _boughtValue) */\n      mload(0x40)\n      dup4\n      0xffffffff\n      and\n      0xe0\n      shl\n      dup2\n      mstore\n      0x04\n      add\n      tag_108\n      swap3\n      swap2\n      swap1\n      tag_68\n      jump\t// in\n    tag_108:\n      0x20\n      mload(0x40)\n      dup1\n      dup4\n      sub\n      dup2\n      0x00\n      dup8\n      gas\n      call\n      iszero\n      dup1\n      iszero\n      tag_110\n      jumpi\n      returndatasize\n      0x00\n      dup1\n      returndatacopy\n      revert(0x00, returndatasize)\n    tag_110:\n      pop\n      pop\n      pop\n      pop\n      mload(0x40)\n      returndatasize\n      not(0x1f)\n      0x1f\n      dup3\n      add\n      and\n      dup3\n      add\n      dup1\n      0x40\n      mstore\n      pop\n      dup2\n      add\n      swap1\n      tag_111\n      swap2\n      swap1\n      tag_72\n      jump\t// in\n    tag_111:\n      pop\n        /* \"contracts/Affiliate.sol\":2425:2435  _affiliate */\n      dup4\n        /* \"contracts/Affiliate.sol\":2344:2469  AccumulatedCommission(... */\n      0xffffffffffffffffffffffffffffffffffffffff\n      and\n        /* \"contracts/Affiliate.sol\":2379:2385  _buyer */\n      dup3\n        /* \"contracts/Affiliate.sol\":2344:2469  AccumulatedCommission(... */\n      0xffffffffffffffffffffffffffffffffffffffff\n      and\n      0x5a1838523901c986595a2cf4484933f2c42d64a7bfc9b6d0c40cacb22379fa82\n        /* \"contracts/Affiliate.sol\":2399:2411  _boughtValue */\n      dup6\n        /* \"contracts/Affiliate.sol\":2449:2459  commission */\n      dup5\n        /* \"contracts/Affiliate.sol\":2344:2469  AccumulatedCommission(... */\n      mload(0x40)\n      tag_112\n      swap3\n      swap2\n      swap1\n      tag_113\n      jump\t// in\n    tag_112:\n      mload(0x40)\n      dup1\n      swap2\n      sub\n      swap1\n      log3\n        /* \"contracts/Affiliate.sol\":1843:2476  {... */\n      pop\n        /* \"contracts/Affiliate.sol\":1708:2476  function addCommissionByOwner(... */\n      pop\n      pop\n      pop\n      jump\t// out\n        /* \"contracts/Affiliate.sol\":244:263  IERC20 public token */\n    tag_52:\n      0x01\n      0x00\n      swap1\n      sload\n      swap1\n      0x0100\n      exp\n      swap1\n      div\n      0xffffffffffffffffffffffffffffffffffffffff\n      and\n      dup2\n      jump\t// out\n        /* \"@openzeppelin/contracts/access/Ownable.sol\":1796:1958  function _checkOwner() internal view virtual {... */\n    tag_77:\n        /* \"@openzeppelin/contracts/access/Ownable.sol\":1866:1878  _msgSender() */\n      tag_115\n        /* \"@openzeppelin/contracts/access/Ownable.sol\":1866:1876  _msgSender */\n      tag_116\n        /* \"@openzeppelin/contracts/access/Ownable.sol\":1866:1878  _msgSender() */\n      jump\t// in\n    tag_115:\n        /* \"@openzeppelin/contracts/access/Ownable.sol\":1855:1878  owner() != _msgSender() */\n      0xffffffffffffffffffffffffffffffffffffffff\n      and\n        /* \"@openzeppelin/contracts/access/Ownable.sol\":1855:1862  owner() */\n      tag_117\n        /* \"@openzeppelin/contracts/access/Ownable.sol\":1855:1860  owner */\n      tag_41\n        /* \"@openzeppelin/contracts/access/Ownable.sol\":1855:1862  owner() */\n      jump\t// in\n    tag_117:\n        /* \"@openzeppelin/contracts/access/Ownable.sol\":1855:1878  owner() != _msgSender() */\n      0xffffffffffffffffffffffffffffffffffffffff\n      and\n      eq\n        /* \"@openzeppelin/contracts/access/Ownable.sol\":1851:1952  if (owner() != _msgSender()) {... */\n      tag_118\n      jumpi\n        /* \"@openzeppelin/contracts/access/Ownable.sol\":1928:1940  _msgSender() */\n      tag_119\n        /* \"@openzeppelin/contracts/access/Ownable.sol\":1928:1938  _msgSender */\n      tag_116\n        /* \"@openzeppelin/contracts/access/Ownable.sol\":1928:1940  _msgSender() */\n      jump\t// in\n    tag_119:\n        /* \"@openzeppelin/contracts/access/Ownable.sol\":1901:1941  OwnableUnauthorizedAccount(_msgSender()) */\n      mload(0x40)\n      0x118cdaa700000000000000000000000000000000000000000000000000000000\n      dup2\n      mstore\n      0x04\n      add\n      tag_120\n      swap2\n      swap1\n      tag_43\n      jump\t// in\n    tag_120:\n      mload(0x40)\n      dup1\n      swap2\n      sub\n      swap1\n      revert\n        /* \"@openzeppelin/contracts/access/Ownable.sol\":1851:1952  if (owner() != _msgSender()) {... */\n    tag_118:\n        /* \"@openzeppelin/contracts/access/Ownable.sol\":1796:1958  function _checkOwner() internal view virtual {... */\n      jump\t// out\n        /* \"@openzeppelin/contracts/access/Ownable.sol\":2912:3099  function _transferOwnership(address newOwner) internal virtual {... */\n    tag_80:\n        /* \"@openzeppelin/contracts/access/Ownable.sol\":2985:3001  address oldOwner */\n      0x00\n        /* \"@openzeppelin/contracts/access/Ownable.sol\":3004:3010  _owner */\n      dup1\n      0x00\n      swap1\n      sload\n      swap1\n      0x0100\n      exp\n      swap1\n      div\n      0xffffffffffffffffffffffffffffffffffffffff\n      and\n        /* \"@openzeppelin/contracts/access/Ownable.sol\":2985:3010  address oldOwner = _owner */\n      swap1\n      pop\n        /* \"@openzeppelin/contracts/access/Ownable.sol\":3029:3037  newOwner */\n      dup2\n        /* \"@openzeppelin/contracts/access/Ownable.sol\":3020:3026  _owner */\n      0x00\n      dup1\n        /* \"@openzeppelin/contracts/access/Ownable.sol\":3020:3037  _owner = newOwner */\n      0x0100\n      exp\n      dup2\n      sload\n      dup2\n      0xffffffffffffffffffffffffffffffffffffffff\n      mul\n      not\n      and\n      swap1\n      dup4\n      0xffffffffffffffffffffffffffffffffffffffff\n      and\n      mul\n      or\n      swap1\n      sstore\n      pop\n        /* \"@openzeppelin/contracts/access/Ownable.sol\":3083:3091  newOwner */\n      dup2\n        /* \"@openzeppelin/contracts/access/Ownable.sol\":3052:3092  OwnershipTransferred(oldOwner, newOwner) */\n      0xffffffffffffffffffffffffffffffffffffffff\n      and\n        /* \"@openzeppelin/contracts/access/Ownable.sol\":3073:3081  oldOwner */\n      dup2\n        /* \"@openzeppelin/contracts/access/Ownable.sol\":3052:3092  OwnershipTransferred(oldOwner, newOwner) */\n      0xffffffffffffffffffffffffffffffffffffffff\n      and\n      0x8be0079c531659141344cd1fd0a4f28419497f9722a3daafe3b4186f6b6457e0\n      mload(0x40)\n      mload(0x40)\n      dup1\n      swap2\n      sub\n      swap1\n      log3\n        /* \"@openzeppelin/contracts/access/Ownable.sol\":2975:3099  {... */\n      pop\n        /* \"@openzeppelin/contracts/access/Ownable.sol\":2912:3099  function _transferOwnership(address newOwner) internal virtual {... */\n      pop\n      jump\t// out\n        /* \"@openzeppelin/contracts/utils/Context.sol\":656:752  function _msgSender() internal view virtual returns (address) {... */\n    tag_116:\n        /* \"@openzeppelin/contracts/utils/Context.sol\":709:716  address */\n      0x00\n        /* \"@openzeppelin/contracts/utils/Context.sol\":735:745  msg.sender */\n      caller\n        /* \"@openzeppelin/contracts/utils/Context.sol\":728:745  return msg.sender */\n      swap1\n      pop\n        /* \"@openzeppelin/contracts/utils/Context.sol\":656:752  function _msgSender() internal view virtual returns (address) {... */\n      swap1\n      jump\t// out\n        /* \"#utility.yul\":88:205   */\n    tag_124:\n        /* \"#utility.yul\":197:198   */\n      0x00\n        /* \"#utility.yul\":194:195   */\n      dup1\n        /* \"#utility.yul\":187:199   */\n      revert\n        /* \"#utility.yul\":334:460   */\n    tag_126:\n        /* \"#utility.yul\":371:378   */\n      0x00\n        /* \"#utility.yul\":411:453   */\n      0xffffffffffffffffffffffffffffffffffffffff\n        /* \"#utility.yul\":404:409   */\n      dup3\n        /* \"#utility.yul\":400:454   */\n      and\n        /* \"#utility.yul\":389:454   */\n      swap1\n      pop\n        /* \"#utility.yul\":334:460   */\n      swap2\n      swap1\n      pop\n      jump\t// out\n        /* \"#utility.yul\":466:562   */\n    tag_127:\n        /* \"#utility.yul\":503:510   */\n      0x00\n        /* \"#utility.yul\":532:556   */\n      tag_165\n        /* \"#utility.yul\":550:555   */\n      dup3\n        /* \"#utility.yul\":532:556   */\n      tag_126\n      jump\t// in\n    tag_165:\n        /* \"#utility.yul\":521:556   */\n      swap1\n      pop\n        /* \"#utility.yul\":466:562   */\n      swap2\n      swap1\n      pop\n      jump\t// out\n        /* \"#utility.yul\":568:690   */\n    tag_128:\n        /* \"#utility.yul\":641:665   */\n      tag_167\n        /* \"#utility.yul\":659:664   */\n      dup2\n        /* \"#utility.yul\":641:665   */\n      tag_127\n      jump\t// in\n    tag_167:\n        /* \"#utility.yul\":634:639   */\n      dup2\n        /* \"#utility.yul\":631:666   */\n      eq\n        /* \"#utility.yul\":621:684   */\n      tag_168\n      jumpi\n        /* \"#utility.yul\":680:681   */\n      0x00\n        /* \"#utility.yul\":677:678   */\n      dup1\n        /* \"#utility.yul\":670:682   */\n      revert\n        /* \"#utility.yul\":621:684   */\n    tag_168:\n        /* \"#utility.yul\":568:690   */\n      pop\n      jump\t// out\n        /* \"#utility.yul\":696:835   */\n    tag_129:\n        /* \"#utility.yul\":742:747   */\n      0x00\n        /* \"#utility.yul\":780:786   */\n      dup2\n        /* \"#utility.yul\":767:787   */\n      calldataload\n        /* \"#utility.yul\":758:787   */\n      swap1\n      pop\n        /* \"#utility.yul\":796:829   */\n      tag_170\n        /* \"#utility.yul\":823:828   */\n      dup2\n        /* \"#utility.yul\":796:829   */\n      tag_128\n      jump\t// in\n    tag_170:\n        /* \"#utility.yul\":696:835   */\n      swap3\n      swap2\n      pop\n      pop\n      jump\t// out\n        /* \"#utility.yul\":841:1170   */\n    tag_19:\n        /* \"#utility.yul\":900:906   */\n      0x00\n        /* \"#utility.yul\":949:951   */\n      0x20\n        /* \"#utility.yul\":937:946   */\n      dup3\n        /* \"#utility.yul\":928:935   */\n      dup5\n        /* \"#utility.yul\":924:947   */\n      sub\n        /* \"#utility.yul\":920:952   */\n      slt\n        /* \"#utility.yul\":917:1036   */\n      iszero\n      tag_172\n      jumpi\n        /* \"#utility.yul\":955:1034   */\n      tag_173\n      tag_124\n      jump\t// in\n    tag_173:\n        /* \"#utility.yul\":917:1036   */\n    tag_172:\n        /* \"#utility.yul\":1075:1076   */\n      0x00\n        /* \"#utility.yul\":1100:1153   */\n      tag_174\n        /* \"#utility.yul\":1145:1152   */\n      dup5\n        /* \"#utility.yul\":1136:1142   */\n      dup3\n        /* \"#utility.yul\":1125:1134   */\n      dup6\n        /* \"#utility.yul\":1121:1143   */\n      add\n        /* \"#utility.yul\":1100:1153   */\n      tag_129\n      jump\t// in\n    tag_174:\n        /* \"#utility.yul\":1090:1153   */\n      swap2\n      pop\n        /* \"#utility.yul\":1046:1163   */\n      pop\n        /* \"#utility.yul\":841:1170   */\n      swap3\n      swap2\n      pop\n      pop\n      jump\t// out\n        /* \"#utility.yul\":1176:1262   */\n    tag_130:\n        /* \"#utility.yul\":1211:1218   */\n      0x00\n        /* \"#utility.yul\":1251:1255   */\n      0xff\n        /* \"#utility.yul\":1244:1249   */\n      dup3\n        /* \"#utility.yul\":1240:1256   */\n      and\n        /* \"#utility.yul\":1229:1256   */\n      swap1\n      pop\n        /* \"#utility.yul\":1176:1262   */\n      swap2\n      swap1\n      pop\n      jump\t// out\n        /* \"#utility.yul\":1268:1380   */\n    tag_131:\n        /* \"#utility.yul\":1351:1373   */\n      tag_177\n        /* \"#utility.yul\":1367:1372   */\n      dup2\n        /* \"#utility.yul\":1351:1373   */\n      tag_130\n      jump\t// in\n    tag_177:\n        /* \"#utility.yul\":1346:1349   */\n      dup3\n        /* \"#utility.yul\":1339:1374   */\n      mstore\n        /* \"#utility.yul\":1268:1380   */\n      pop\n      pop\n      jump\t// out\n        /* \"#utility.yul\":1386:1600   */\n    tag_25:\n        /* \"#utility.yul\":1475:1479   */\n      0x00\n        /* \"#utility.yul\":1513:1515   */\n      0x20\n        /* \"#utility.yul\":1502:1511   */\n      dup3\n        /* \"#utility.yul\":1498:1516   */\n      add\n        /* \"#utility.yul\":1490:1516   */\n      swap1\n      pop\n        /* \"#utility.yul\":1526:1593   */\n      tag_179\n        /* \"#utility.yul\":1590:1591   */\n      0x00\n        /* \"#utility.yul\":1579:1588   */\n      dup4\n        /* \"#utility.yul\":1575:1592   */\n      add\n        /* \"#utility.yul\":1566:1572   */\n      dup5\n        /* \"#utility.yul\":1526:1593   */\n      tag_131\n      jump\t// in\n    tag_179:\n        /* \"#utility.yul\":1386:1600   */\n      swap3\n      swap2\n      pop\n      pop\n      jump\t// out\n        /* \"#utility.yul\":1606:1724   */\n    tag_132:\n        /* \"#utility.yul\":1677:1699   */\n      tag_181\n        /* \"#utility.yul\":1693:1698   */\n      dup2\n        /* \"#utility.yul\":1677:1699   */\n      tag_130\n      jump\t// in\n    tag_181:\n        /* \"#utility.yul\":1670:1675   */\n      dup2\n        /* \"#utility.yul\":1667:1700   */\n      eq\n        /* \"#utility.yul\":1657:1718   */\n      tag_182\n      jumpi\n        /* \"#utility.yul\":1714:1715   */\n      0x00\n        /* \"#utility.yul\":1711:1712   */\n      dup1\n        /* \"#utility.yul\":1704:1716   */\n      revert\n        /* \"#utility.yul\":1657:1718   */\n    tag_182:\n        /* \"#utility.yul\":1606:1724   */\n      pop\n      jump\t// out\n        /* \"#utility.yul\":1730:1865   */\n    tag_133:\n        /* \"#utility.yul\":1774:1779   */\n      0x00\n        /* \"#utility.yul\":1812:1818   */\n      dup2\n        /* \"#utility.yul\":1799:1819   */\n      calldataload\n        /* \"#utility.yul\":1790:1819   */\n      swap1\n      pop\n        /* \"#utility.yul\":1828:1859   */\n      tag_184\n        /* \"#utility.yul\":1853:1858   */\n      dup2\n        /* \"#utility.yul\":1828:1859   */\n      tag_132\n      jump\t// in\n    tag_184:\n        /* \"#utility.yul\":1730:1865   */\n      swap3\n      swap2\n      pop\n      pop\n      jump\t// out\n        /* \"#utility.yul\":1871:2196   */\n    tag_33:\n        /* \"#utility.yul\":1928:1934   */\n      0x00\n        /* \"#utility.yul\":1977:1979   */\n      0x20\n        /* \"#utility.yul\":1965:1974   */\n      dup3\n        /* \"#utility.yul\":1956:1963   */\n      dup5\n        /* \"#utility.yul\":1952:1975   */\n      sub\n        /* \"#utility.yul\":1948:1980   */\n      slt\n        /* \"#utility.yul\":1945:2064   */\n      iszero\n      tag_186\n      jumpi\n        /* \"#utility.yul\":1983:2062   */\n      tag_187\n      tag_124\n      jump\t// in\n    tag_187:\n        /* \"#utility.yul\":1945:2064   */\n    tag_186:\n        /* \"#utility.yul\":2103:2104   */\n      0x00\n        /* \"#utility.yul\":2128:2179   */\n      tag_188\n        /* \"#utility.yul\":2171:2178   */\n      dup5\n        /* \"#utility.yul\":2162:2168   */\n      dup3\n        /* \"#utility.yul\":2151:2160   */\n      dup6\n        /* \"#utility.yul\":2147:2169   */\n      add\n        /* \"#utility.yul\":2128:2179   */\n      tag_133\n      jump\t// in\n    tag_188:\n        /* \"#utility.yul\":2118:2179   */\n      swap2\n      pop\n        /* \"#utility.yul\":2074:2189   */\n      pop\n        /* \"#utility.yul\":1871:2196   */\n      swap3\n      swap2\n      pop\n      pop\n      jump\t// out\n        /* \"#utility.yul\":2202:2279   */\n    tag_134:\n        /* \"#utility.yul\":2239:2246   */\n      0x00\n        /* \"#utility.yul\":2268:2273   */\n      dup2\n        /* \"#utility.yul\":2257:2273   */\n      swap1\n      pop\n        /* \"#utility.yul\":2202:2279   */\n      swap2\n      swap1\n      pop\n      jump\t// out\n        /* \"#utility.yul\":2285:2403   */\n    tag_135:\n        /* \"#utility.yul\":2372:2396   */\n      tag_191\n        /* \"#utility.yul\":2390:2395   */\n      dup2\n        /* \"#utility.yul\":2372:2396   */\n      tag_134\n      jump\t// in\n    tag_191:\n        /* \"#utility.yul\":2367:2370   */\n      dup3\n        /* \"#utility.yul\":2360:2397   */\n      mstore\n        /* \"#utility.yul\":2285:2403   */\n      pop\n      pop\n      jump\t// out\n        /* \"#utility.yul\":2409:2631   */\n    tag_39:\n        /* \"#utility.yul\":2502:2506   */\n      0x00\n        /* \"#utility.yul\":2540:2542   */\n      0x20\n        /* \"#utility.yul\":2529:2538   */\n      dup3\n        /* \"#utility.yul\":2525:2543   */\n      add\n        /* \"#utility.yul\":2517:2543   */\n      swap1\n      pop\n        /* \"#utility.yul\":2553:2624   */\n      tag_193\n        /* \"#utility.yul\":2621:2622   */\n      0x00\n        /* \"#utility.yul\":2610:2619   */\n      dup4\n        /* \"#utility.yul\":2606:2623   */\n      add\n        /* \"#utility.yul\":2597:2603   */\n      dup5\n        /* \"#utility.yul\":2553:2624   */\n      tag_135\n      jump\t// in\n    tag_193:\n        /* \"#utility.yul\":2409:2631   */\n      swap3\n      swap2\n      pop\n      pop\n      jump\t// out\n        /* \"#utility.yul\":2637:2755   */\n    tag_136:\n        /* \"#utility.yul\":2724:2748   */\n      tag_195\n        /* \"#utility.yul\":2742:2747   */\n      dup2\n        /* \"#utility.yul\":2724:2748   */\n      tag_127\n      jump\t// in\n    tag_195:\n        /* \"#utility.yul\":2719:2722   */\n      dup3\n        /* \"#utility.yul\":2712:2749   */\n      mstore\n        /* \"#utility.yul\":2637:2755   */\n      pop\n      pop\n      jump\t// out\n        /* \"#utility.yul\":2761:2983   */\n    tag_43:\n        /* \"#utility.yul\":2854:2858   */\n      0x00\n        /* \"#utility.yul\":2892:2894   */\n      0x20\n        /* \"#utility.yul\":2881:2890   */\n      dup3\n        /* \"#utility.yul\":2877:2895   */\n      add\n        /* \"#utility.yul\":2869:2895   */\n      swap1\n      pop\n        /* \"#utility.yul\":2905:2976   */\n      tag_197\n        /* \"#utility.yul\":2973:2974   */\n      0x00\n        /* \"#utility.yul\":2962:2971   */\n      dup4\n        /* \"#utility.yul\":2958:2975   */\n      add\n        /* \"#utility.yul\":2949:2955   */\n      dup5\n        /* \"#utility.yul\":2905:2976   */\n      tag_136\n      jump\t// in\n    tag_197:\n        /* \"#utility.yul\":2761:2983   */\n      swap3\n      swap2\n      pop\n      pop\n      jump\t// out\n        /* \"#utility.yul\":2989:3111   */\n    tag_137:\n        /* \"#utility.yul\":3062:3086   */\n      tag_199\n        /* \"#utility.yul\":3080:3085   */\n      dup2\n        /* \"#utility.yul\":3062:3086   */\n      tag_134\n      jump\t// in\n    tag_199:\n        /* \"#utility.yul\":3055:3060   */\n      dup2\n        /* \"#utility.yul\":3052:3087   */\n      eq\n        /* \"#utility.yul\":3042:3105   */\n      tag_200\n      jumpi\n        /* \"#utility.yul\":3101:3102   */\n      0x00\n        /* \"#utility.yul\":3098:3099   */\n      dup1\n        /* \"#utility.yul\":3091:3103   */\n      revert\n        /* \"#utility.yul\":3042:3105   */\n    tag_200:\n        /* \"#utility.yul\":2989:3111   */\n      pop\n      jump\t// out\n        /* \"#utility.yul\":3117:3256   */\n    tag_138:\n        /* \"#utility.yul\":3163:3168   */\n      0x00\n        /* \"#utility.yul\":3201:3207   */\n      dup2\n        /* \"#utility.yul\":3188:3208   */\n      calldataload\n        /* \"#utility.yul\":3179:3208   */\n      swap1\n      pop\n        /* \"#utility.yul\":3217:3250   */\n      tag_202\n        /* \"#utility.yul\":3244:3249   */\n      dup2\n        /* \"#utility.yul\":3217:3250   */\n      tag_137\n      jump\t// in\n    tag_202:\n        /* \"#utility.yul\":3117:3256   */\n      swap3\n      swap2\n      pop\n      pop\n      jump\t// out\n        /* \"#utility.yul\":3262:3881   */\n    tag_49:\n        /* \"#utility.yul\":3339:3345   */\n      0x00\n        /* \"#utility.yul\":3347:3353   */\n      dup1\n        /* \"#utility.yul\":3355:3361   */\n      0x00\n        /* \"#utility.yul\":3404:3406   */\n      0x60\n        /* \"#utility.yul\":3392:3401   */\n      dup5\n        /* \"#utility.yul\":3383:3390   */\n      dup7\n        /* \"#utility.yul\":3379:3402   */\n      sub\n        /* \"#utility.yul\":3375:3407   */\n      slt\n        /* \"#utility.yul\":3372:3491   */\n      iszero\n      tag_204\n      jumpi\n        /* \"#utility.yul\":3410:3489   */\n      tag_205\n      tag_124\n      jump\t// in\n    tag_205:\n        /* \"#utility.yul\":3372:3491   */\n    tag_204:\n        /* \"#utility.yul\":3530:3531   */\n      0x00\n        /* \"#utility.yul\":3555:3608   */\n      tag_206\n        /* \"#utility.yul\":3600:3607   */\n      dup7\n        /* \"#utility.yul\":3591:3597   */\n      dup3\n        /* \"#utility.yul\":3580:3589   */\n      dup8\n        /* \"#utility.yul\":3576:3598   */\n      add\n        /* \"#utility.yul\":3555:3608   */\n      tag_129\n      jump\t// in\n    tag_206:\n        /* \"#utility.yul\":3545:3608   */\n      swap4\n      pop\n        /* \"#utility.yul\":3501:3618   */\n      pop\n        /* \"#utility.yul\":3657:3659   */\n      0x20\n        /* \"#utility.yul\":3683:3736   */\n      tag_207\n        /* \"#utility.yul\":3728:3735   */\n      dup7\n        /* \"#utility.yul\":3719:3725   */\n      dup3\n        /* \"#utility.yul\":3708:3717   */\n      dup8\n        /* \"#utility.yul\":3704:3726   */\n      add\n        /* \"#utility.yul\":3683:3736   */\n      tag_138\n      jump\t// in\n    tag_207:\n        /* \"#utility.yul\":3673:3736   */\n      swap3\n      pop\n        /* \"#utility.yul\":3628:3746   */\n      pop\n        /* \"#utility.yul\":3785:3787   */\n      0x40\n        /* \"#utility.yul\":3811:3864   */\n      tag_208\n        /* \"#utility.yul\":3856:3863   */\n      dup7\n        /* \"#utility.yul\":3847:3853   */\n      dup3\n        /* \"#utility.yul\":3836:3845   */\n      dup8\n        /* \"#utility.yul\":3832:3854   */\n      add\n        /* \"#utility.yul\":3811:3864   */\n      tag_129\n      jump\t// in\n    tag_208:\n        /* \"#utility.yul\":3801:3864   */\n      swap2\n      pop\n        /* \"#utility.yul\":3756:3874   */\n      pop\n        /* \"#utility.yul\":3262:3881   */\n      swap3\n      pop\n      swap3\n      pop\n      swap3\n      jump\t// out\n        /* \"#utility.yul\":3887:3947   */\n    tag_139:\n        /* \"#utility.yul\":3915:3918   */\n      0x00\n        /* \"#utility.yul\":3936:3941   */\n      dup2\n        /* \"#utility.yul\":3929:3941   */\n      swap1\n      pop\n        /* \"#utility.yul\":3887:3947   */\n      swap2\n      swap1\n      pop\n      jump\t// out\n        /* \"#utility.yul\":3953:4095   */\n    tag_140:\n        /* \"#utility.yul\":4003:4012   */\n      0x00\n        /* \"#utility.yul\":4036:4089   */\n      tag_211\n        /* \"#utility.yul\":4054:4088   */\n      tag_212\n        /* \"#utility.yul\":4063:4087   */\n      tag_213\n        /* \"#utility.yul\":4081:4086   */\n      dup5\n        /* \"#utility.yul\":4063:4087   */\n      tag_126\n      jump\t// in\n    tag_213:\n        /* \"#utility.yul\":4054:4088   */\n      tag_139\n      jump\t// in\n    tag_212:\n        /* \"#utility.yul\":4036:4089   */\n      tag_126\n      jump\t// in\n    tag_211:\n        /* \"#utility.yul\":4023:4089   */\n      swap1\n      pop\n        /* \"#utility.yul\":3953:4095   */\n      swap2\n      swap1\n      pop\n      jump\t// out\n        /* \"#utility.yul\":4101:4227   */\n    tag_141:\n        /* \"#utility.yul\":4151:4160   */\n      0x00\n        /* \"#utility.yul\":4184:4221   */\n      tag_215\n        /* \"#utility.yul\":4215:4220   */\n      dup3\n        /* \"#utility.yul\":4184:4221   */\n      tag_140\n      jump\t// in\n    tag_215:\n        /* \"#utility.yul\":4171:4221   */\n      swap1\n      pop\n        /* \"#utility.yul\":4101:4227   */\n      swap2\n      swap1\n      pop\n      jump\t// out\n        /* \"#utility.yul\":4233:4373   */\n    tag_142:\n        /* \"#utility.yul\":4297:4306   */\n      0x00\n        /* \"#utility.yul\":4330:4367   */\n      tag_217\n        /* \"#utility.yul\":4361:4366   */\n      dup3\n        /* \"#utility.yul\":4330:4367   */\n      tag_141\n      jump\t// in\n    tag_217:\n        /* \"#utility.yul\":4317:4367   */\n      swap1\n      pop\n        /* \"#utility.yul\":4233:4373   */\n      swap2\n      swap1\n      pop\n      jump\t// out\n        /* \"#utility.yul\":4379:4538   */\n    tag_143:\n        /* \"#utility.yul\":4480:4531   */\n      tag_219\n        /* \"#utility.yul\":4525:4530   */\n      dup2\n        /* \"#utility.yul\":4480:4531   */\n      tag_142\n      jump\t// in\n    tag_219:\n        /* \"#utility.yul\":4475:4478   */\n      dup3\n        /* \"#utility.yul\":4468:4532   */\n      mstore\n        /* \"#utility.yul\":4379:4538   */\n      pop\n      pop\n      jump\t// out\n        /* \"#utility.yul\":4544:4794   */\n    tag_54:\n        /* \"#utility.yul\":4651:4655   */\n      0x00\n        /* \"#utility.yul\":4689:4691   */\n      0x20\n        /* \"#utility.yul\":4678:4687   */\n      dup3\n        /* \"#utility.yul\":4674:4692   */\n      add\n        /* \"#utility.yul\":4666:4692   */\n      swap1\n      pop\n        /* \"#utility.yul\":4702:4787   */\n      tag_221\n        /* \"#utility.yul\":4784:4785   */\n      0x00\n        /* \"#utility.yul\":4773:4782   */\n      dup4\n        /* \"#utility.yul\":4769:4786   */\n      add\n        /* \"#utility.yul\":4760:4766   */\n      dup5\n        /* \"#utility.yul\":4702:4787   */\n      tag_143\n      jump\t// in\n    tag_221:\n        /* \"#utility.yul\":4544:4794   */\n      swap3\n      swap2\n      pop\n      pop\n      jump\t// out\n        /* \"#utility.yul\":4800:4969   */\n    tag_144:\n        /* \"#utility.yul\":4884:4895   */\n      0x00\n        /* \"#utility.yul\":4918:4924   */\n      dup3\n        /* \"#utility.yul\":4913:4916   */\n      dup3\n        /* \"#utility.yul\":4906:4925   */\n      mstore\n        /* \"#utility.yul\":4958:4962   */\n      0x20\n        /* \"#utility.yul\":4953:4956   */\n      dup3\n        /* \"#utility.yul\":4949:4963   */\n      add\n        /* \"#utility.yul\":4934:4963   */\n      swap1\n      pop\n        /* \"#utility.yul\":4800:4969   */\n      swap3\n      swap2\n      pop\n      pop\n      jump\t// out\n        /* \"#utility.yul\":4975:5150   */\n    tag_145:\n        /* \"#utility.yul\":5115:5142   */\n      0x4e6f20636f6d6d697373696f6e20746f20776974686472617700000000000000\n        /* \"#utility.yul\":5111:5112   */\n      0x00\n        /* \"#utility.yul\":5103:5109   */\n      dup3\n        /* \"#utility.yul\":5099:5113   */\n      add\n        /* \"#utility.yul\":5092:5143   */\n      mstore\n        /* \"#utility.yul\":4975:5150   */\n      pop\n      jump\t// out\n        /* \"#utility.yul\":5156:5522   */\n    tag_146:\n        /* \"#utility.yul\":5298:5301   */\n      0x00\n        /* \"#utility.yul\":5319:5386   */\n      tag_225\n        /* \"#utility.yul\":5383:5385   */\n      0x19\n        /* \"#utility.yul\":5378:5381   */\n      dup4\n        /* \"#utility.yul\":5319:5386   */\n      tag_144\n      jump\t// in\n    tag_225:\n        /* \"#utility.yul\":5312:5386   */\n      swap2\n      pop\n        /* \"#utility.yul\":5395:5488   */\n      tag_226\n        /* \"#utility.yul\":5484:5487   */\n      dup3\n        /* \"#utility.yul\":5395:5488   */\n      tag_145\n      jump\t// in\n    tag_226:\n        /* \"#utility.yul\":5513:5515   */\n      0x20\n        /* \"#utility.yul\":5508:5511   */\n      dup3\n        /* \"#utility.yul\":5504:5516   */\n      add\n        /* \"#utility.yul\":5497:5516   */\n      swap1\n      pop\n        /* \"#utility.yul\":5156:5522   */\n      swap2\n      swap1\n      pop\n      jump\t// out\n        /* \"#utility.yul\":5528:5947   */\n    tag_58:\n        /* \"#utility.yul\":5694:5698   */\n      0x00\n        /* \"#utility.yul\":5732:5734   */\n      0x20\n        /* \"#utility.yul\":5721:5730   */\n      dup3\n        /* \"#utility.yul\":5717:5735   */\n      add\n        /* \"#utility.yul\":5709:5735   */\n      swap1\n      pop\n        /* \"#utility.yul\":5781:5790   */\n      dup2\n        /* \"#utility.yul\":5775:5779   */\n      dup2\n        /* \"#utility.yul\":5771:5791   */\n      sub\n        /* \"#utility.yul\":5767:5768   */\n      0x00\n        /* \"#utility.yul\":5756:5765   */\n      dup4\n        /* \"#utility.yul\":5752:5769   */\n      add\n        /* \"#utility.yul\":5745:5792   */\n      mstore\n        /* \"#utility.yul\":5809:5940   */\n      tag_228\n        /* \"#utility.yul\":5935:5939   */\n      dup2\n        /* \"#utility.yul\":5809:5940   */\n      tag_146\n      jump\t// in\n    tag_228:\n        /* \"#utility.yul\":5801:5940   */\n      swap1\n      pop\n        /* \"#utility.yul\":5528:5947   */\n      swap2\n      swap1\n      pop\n      jump\t// out\n        /* \"#utility.yul\":5953:6096   */\n    tag_147:\n        /* \"#utility.yul\":6010:6015   */\n      0x00\n        /* \"#utility.yul\":6041:6047   */\n      dup2\n        /* \"#utility.yul\":6035:6048   */\n      mload\n        /* \"#utility.yul\":6026:6048   */\n      swap1\n      pop\n        /* \"#utility.yul\":6057:6090   */\n      tag_230\n        /* \"#utility.yul\":6084:6089   */\n      dup2\n        /* \"#utility.yul\":6057:6090   */\n      tag_137\n      jump\t// in\n    tag_230:\n        /* \"#utility.yul\":5953:6096   */\n      swap3\n      swap2\n      pop\n      pop\n      jump\t// out\n        /* \"#utility.yul\":6102:6453   */\n    tag_63:\n        /* \"#utility.yul\":6172:6178   */\n      0x00\n        /* \"#utility.yul\":6221:6223   */\n      0x20\n        /* \"#utility.yul\":6209:6218   */\n      dup3\n        /* \"#utility.yul\":6200:6207   */\n      dup5\n        /* \"#utility.yul\":6196:6219   */\n      sub\n        /* \"#utility.yul\":6192:6224   */\n      slt\n        /* \"#utility.yul\":6189:6308   */\n      iszero\n      tag_232\n      jumpi\n        /* \"#utility.yul\":6227:6306   */\n      tag_233\n      tag_124\n      jump\t// in\n    tag_233:\n        /* \"#utility.yul\":6189:6308   */\n    tag_232:\n        /* \"#utility.yul\":6347:6348   */\n      0x00\n        /* \"#utility.yul\":6372:6436   */\n      tag_234\n        /* \"#utility.yul\":6428:6435   */\n      dup5\n        /* \"#utility.yul\":6419:6425   */\n      dup3\n        /* \"#utility.yul\":6408:6417   */\n      dup6\n        /* \"#utility.yul\":6404:6426   */\n      add\n        /* \"#utility.yul\":6372:6436   */\n      tag_147\n      jump\t// in\n    tag_234:\n        /* \"#utility.yul\":6362:6436   */\n      swap2\n      pop\n        /* \"#utility.yul\":6318:6446   */\n      pop\n        /* \"#utility.yul\":6102:6453   */\n      swap3\n      swap2\n      pop\n      pop\n      jump\t// out\n        /* \"#utility.yul\":6459:6637   */\n    tag_148:\n        /* \"#utility.yul\":6599:6629   */\n      0x496e7375666669636e657420636f6e74726163742062616c616e636500000000\n        /* \"#utility.yul\":6595:6596   */\n      0x00\n        /* \"#utility.yul\":6587:6593   */\n      dup3\n        /* \"#utility.yul\":6583:6597   */\n      add\n        /* \"#utility.yul\":6576:6630   */\n      mstore\n        /* \"#utility.yul\":6459:6637   */\n      pop\n      jump\t// out\n        /* \"#utility.yul\":6643:7009   */\n    tag_149:\n        /* \"#utility.yul\":6785:6788   */\n      0x00\n        /* \"#utility.yul\":6806:6873   */\n      tag_237\n        /* \"#utility.yul\":6870:6872   */\n      0x1c\n        /* \"#utility.yul\":6865:6868   */\n      dup4\n        /* \"#utility.yul\":6806:6873   */\n      tag_144\n      jump\t// in\n    tag_237:\n        /* \"#utility.yul\":6799:6873   */\n      swap2\n      pop\n        /* \"#utility.yul\":6882:6975   */\n      tag_238\n        /* \"#utility.yul\":6971:6974   */\n      dup3\n        /* \"#utility.yul\":6882:6975   */\n      tag_148\n      jump\t// in\n    tag_238:\n        /* \"#utility.yul\":7000:7002   */\n      0x20\n        /* \"#utility.yul\":6995:6998   */\n      dup3\n        /* \"#utility.yul\":6991:7003   */\n      add\n        /* \"#utility.yul\":6984:7003   */\n      swap1\n      pop\n        /* \"#utility.yul\":6643:7009   */\n      swap2\n      swap1\n      pop\n      jump\t// out\n        /* \"#utility.yul\":7015:7434   */\n    tag_66:\n        /* \"#utility.yul\":7181:7185   */\n      0x00\n        /* \"#utility.yul\":7219:7221   */\n      0x20\n        /* \"#utility.yul\":7208:7217   */\n      dup3\n        /* \"#utility.yul\":7204:7222   */\n      add\n        /* \"#utility.yul\":7196:7222   */\n      swap1\n      pop\n        /* \"#utility.yul\":7268:7277   */\n      dup2\n        /* \"#utility.yul\":7262:7266   */\n      dup2\n        /* \"#utility.yul\":7258:7278   */\n      sub\n        /* \"#utility.yul\":7254:7255   */\n      0x00\n        /* \"#utility.yul\":7243:7252   */\n      dup4\n        /* \"#utility.yul\":7239:7256   */\n      add\n        /* \"#utility.yul\":7232:7279   */\n      mstore\n        /* \"#utility.yul\":7296:7427   */\n      tag_240\n        /* \"#utility.yul\":7422:7426   */\n      dup2\n        /* \"#utility.yul\":7296:7427   */\n      tag_149\n      jump\t// in\n    tag_240:\n        /* \"#utility.yul\":7288:7427   */\n      swap1\n      pop\n        /* \"#utility.yul\":7015:7434   */\n      swap2\n      swap1\n      pop\n      jump\t// out\n        /* \"#utility.yul\":7440:7772   */\n    tag_68:\n        /* \"#utility.yul\":7561:7565   */\n      0x00\n        /* \"#utility.yul\":7599:7601   */\n      0x40\n        /* \"#utility.yul\":7588:7597   */\n      dup3\n        /* \"#utility.yul\":7584:7602   */\n      add\n        /* \"#utility.yul\":7576:7602   */\n      swap1\n      pop\n        /* \"#utility.yul\":7612:7683   */\n      tag_242\n        /* \"#utility.yul\":7680:7681   */\n      0x00\n        /* \"#utility.yul\":7669:7678   */\n      dup4\n        /* \"#utility.yul\":7665:7682   */\n      add\n        /* \"#utility.yul\":7656:7662   */\n      dup6\n        /* \"#utility.yul\":7612:7683   */\n      tag_136\n      jump\t// in\n    tag_242:\n        /* \"#utility.yul\":7693:7765   */\n      tag_243\n        /* \"#utility.yul\":7761:7763   */\n      0x20\n        /* \"#utility.yul\":7750:7759   */\n      dup4\n        /* \"#utility.yul\":7746:7764   */\n      add\n        /* \"#utility.yul\":7737:7743   */\n      dup5\n        /* \"#utility.yul\":7693:7765   */\n      tag_135\n      jump\t// in\n    tag_243:\n        /* \"#utility.yul\":7440:7772   */\n      swap4\n      swap3\n      pop\n      pop\n      pop\n      jump\t// out\n        /* \"#utility.yul\":7778:7868   */\n    tag_150:\n        /* \"#utility.yul\":7812:7819   */\n      0x00\n        /* \"#utility.yul\":7855:7860   */\n      dup2\n        /* \"#utility.yul\":7848:7861   */\n      iszero\n        /* \"#utility.yul\":7841:7862   */\n      iszero\n        /* \"#utility.yul\":7830:7862   */\n      swap1\n      pop\n        /* \"#utility.yul\":7778:7868   */\n      swap2\n      swap1\n      pop\n      jump\t// out\n        /* \"#utility.yul\":7874:7990   */\n    tag_151:\n        /* \"#utility.yul\":7944:7965   */\n      tag_246\n        /* \"#utility.yul\":7959:7964   */\n      dup2\n        /* \"#utility.yul\":7944:7965   */\n      tag_150\n      jump\t// in\n    tag_246:\n        /* \"#utility.yul\":7937:7942   */\n      dup2\n        /* \"#utility.yul\":7934:7966   */\n      eq\n        /* \"#utility.yul\":7924:7984   */\n      tag_247\n      jumpi\n        /* \"#utility.yul\":7980:7981   */\n      0x00\n        /* \"#utility.yul\":7977:7978   */\n      dup1\n        /* \"#utility.yul\":7970:7982   */\n      revert\n        /* \"#utility.yul\":7924:7984   */\n    tag_247:\n        /* \"#utility.yul\":7874:7990   */\n      pop\n      jump\t// out\n        /* \"#utility.yul\":7996:8133   */\n    tag_152:\n        /* \"#utility.yul\":8050:8055   */\n      0x00\n        /* \"#utility.yul\":8081:8087   */\n      dup2\n        /* \"#utility.yul\":8075:8088   */\n      mload\n        /* \"#utility.yul\":8066:8088   */\n      swap1\n      pop\n        /* \"#utility.yul\":8097:8127   */\n      tag_249\n        /* \"#utility.yul\":8121:8126   */\n      dup2\n        /* \"#utility.yul\":8097:8127   */\n      tag_151\n      jump\t// in\n    tag_249:\n        /* \"#utility.yul\":7996:8133   */\n      swap3\n      swap2\n      pop\n      pop\n      jump\t// out\n        /* \"#utility.yul\":8139:8484   */\n    tag_72:\n        /* \"#utility.yul\":8206:8212   */\n      0x00\n        /* \"#utility.yul\":8255:8257   */\n      0x20\n        /* \"#utility.yul\":8243:8252   */\n      dup3\n        /* \"#utility.yul\":8234:8241   */\n      dup5\n        /* \"#utility.yul\":8230:8253   */\n      sub\n        /* \"#utility.yul\":8226:8258   */\n      slt\n        /* \"#utility.yul\":8223:8342   */\n      iszero\n      tag_251\n      jumpi\n        /* \"#utility.yul\":8261:8340   */\n      tag_252\n      tag_124\n      jump\t// in\n    tag_252:\n        /* \"#utility.yul\":8223:8342   */\n    tag_251:\n        /* \"#utility.yul\":8381:8382   */\n      0x00\n        /* \"#utility.yul\":8406:8467   */\n      tag_253\n        /* \"#utility.yul\":8459:8466   */\n      dup5\n        /* \"#utility.yul\":8450:8456   */\n      dup3\n        /* \"#utility.yul\":8439:8448   */\n      dup6\n        /* \"#utility.yul\":8435:8457   */\n      add\n        /* \"#utility.yul\":8406:8467   */\n      tag_152\n      jump\t// in\n    tag_253:\n        /* \"#utility.yul\":8396:8467   */\n      swap2\n      pop\n        /* \"#utility.yul\":8352:8477   */\n      pop\n        /* \"#utility.yul\":8139:8484   */\n      swap3\n      swap2\n      pop\n      pop\n      jump\t// out\n        /* \"#utility.yul\":8490:8714   */\n    tag_153:\n        /* \"#utility.yul\":8630:8664   */\n      0x50757263686173652076616c7565206d75737420626520677265617465722074\n        /* \"#utility.yul\":8626:8627   */\n      0x00\n        /* \"#utility.yul\":8618:8624   */\n      dup3\n        /* \"#utility.yul\":8614:8628   */\n      add\n        /* \"#utility.yul\":8607:8665   */\n      mstore\n        /* \"#utility.yul\":8699:8706   */\n      0x68616e2030000000000000000000000000000000000000000000000000000000\n        /* \"#utility.yul\":8694:8696   */\n      0x20\n        /* \"#utility.yul\":8686:8692   */\n      dup3\n        /* \"#utility.yul\":8682:8697   */\n      add\n        /* \"#utility.yul\":8675:8707   */\n      mstore\n        /* \"#utility.yul\":8490:8714   */\n      pop\n      jump\t// out\n        /* \"#utility.yul\":8720:9086   */\n    tag_154:\n        /* \"#utility.yul\":8862:8865   */\n      0x00\n        /* \"#utility.yul\":8883:8950   */\n      tag_256\n        /* \"#utility.yul\":8947:8949   */\n      0x25\n        /* \"#utility.yul\":8942:8945   */\n      dup4\n        /* \"#utility.yul\":8883:8950   */\n      tag_144\n      jump\t// in\n    tag_256:\n        /* \"#utility.yul\":8876:8950   */\n      swap2\n      pop\n        /* \"#utility.yul\":8959:9052   */\n      tag_257\n        /* \"#utility.yul\":9048:9051   */\n      dup3\n        /* \"#utility.yul\":8959:9052   */\n      tag_153\n      jump\t// in\n    tag_257:\n        /* \"#utility.yul\":9077:9079   */\n      0x40\n        /* \"#utility.yul\":9072:9075   */\n      dup3\n        /* \"#utility.yul\":9068:9080   */\n      add\n        /* \"#utility.yul\":9061:9080   */\n      swap1\n      pop\n        /* \"#utility.yul\":8720:9086   */\n      swap2\n      swap1\n      pop\n      jump\t// out\n        /* \"#utility.yul\":9092:9511   */\n    tag_97:\n        /* \"#utility.yul\":9258:9262   */\n      0x00\n        /* \"#utility.yul\":9296:9298   */\n      0x20\n        /* \"#utility.yul\":9285:9294   */\n      dup3\n        /* \"#utility.yul\":9281:9299   */\n      add\n        /* \"#utility.yul\":9273:9299   */\n      swap1\n      pop\n        /* \"#utility.yul\":9345:9354   */\n      dup2\n        /* \"#utility.yul\":9339:9343   */\n      dup2\n        /* \"#utility.yul\":9335:9355   */\n      sub\n        /* \"#utility.yul\":9331:9332   */\n      0x00\n        /* \"#utility.yul\":9320:9329   */\n      dup4\n        /* \"#utility.yul\":9316:9333   */\n      add\n        /* \"#utility.yul\":9309:9356   */\n      mstore\n        /* \"#utility.yul\":9373:9504   */\n      tag_259\n        /* \"#utility.yul\":9499:9503   */\n      dup2\n        /* \"#utility.yul\":9373:9504   */\n      tag_154\n      jump\t// in\n    tag_259:\n        /* \"#utility.yul\":9365:9504   */\n      swap1\n      pop\n        /* \"#utility.yul\":9092:9511   */\n      swap2\n      swap1\n      pop\n      jump\t// out\n        /* \"#utility.yul\":9517:9744   */\n    tag_155:\n        /* \"#utility.yul\":9657:9691   */\n      0x416666696c696174652063616e6e6f74206265207468652073616d6520617320\n        /* \"#utility.yul\":9653:9654   */\n      0x00\n        /* \"#utility.yul\":9645:9651   */\n      dup3\n        /* \"#utility.yul\":9641:9655   */\n      add\n        /* \"#utility.yul\":9634:9692   */\n      mstore\n        /* \"#utility.yul\":9726:9736   */\n      0x637573746f6d6572000000000000000000000000000000000000000000000000\n        /* \"#utility.yul\":9721:9723   */\n      0x20\n        /* \"#utility.yul\":9713:9719   */\n      dup3\n        /* \"#utility.yul\":9709:9724   */\n      add\n        /* \"#utility.yul\":9702:9737   */\n      mstore\n        /* \"#utility.yul\":9517:9744   */\n      pop\n      jump\t// out\n        /* \"#utility.yul\":9750:10116   */\n    tag_156:\n        /* \"#utility.yul\":9892:9895   */\n      0x00\n        /* \"#utility.yul\":9913:9980   */\n      tag_262\n        /* \"#utility.yul\":9977:9979   */\n      0x28\n        /* \"#utility.yul\":9972:9975   */\n      dup4\n        /* \"#utility.yul\":9913:9980   */\n      tag_144\n      jump\t// in\n    tag_262:\n        /* \"#utility.yul\":9906:9980   */\n      swap2\n      pop\n        /* \"#utility.yul\":9989:10082   */\n      tag_263\n        /* \"#utility.yul\":10078:10081   */\n      dup3\n        /* \"#utility.yul\":9989:10082   */\n      tag_155\n      jump\t// in\n    tag_263:\n        /* \"#utility.yul\":10107:10109   */\n      0x40\n        /* \"#utility.yul\":10102:10105   */\n      dup3\n        /* \"#utility.yul\":10098:10110   */\n      add\n        /* \"#utility.yul\":10091:10110   */\n      swap1\n      pop\n        /* \"#utility.yul\":9750:10116   */\n      swap2\n      swap1\n      pop\n      jump\t// out\n        /* \"#utility.yul\":10122:10541   */\n    tag_100:\n        /* \"#utility.yul\":10288:10292   */\n      0x00\n        /* \"#utility.yul\":10326:10328   */\n      0x20\n        /* \"#utility.yul\":10315:10324   */\n      dup3\n        /* \"#utility.yul\":10311:10329   */\n      add\n        /* \"#utility.yul\":10303:10329   */\n      swap1\n      pop\n        /* \"#utility.yul\":10375:10384   */\n      dup2\n        /* \"#utility.yul\":10369:10373   */\n      dup2\n        /* \"#utility.yul\":10365:10385   */\n      sub\n        /* \"#utility.yul\":10361:10362   */\n      0x00\n        /* \"#utility.yul\":10350:10359   */\n      dup4\n        /* \"#utility.yul\":10346:10363   */\n      add\n        /* \"#utility.yul\":10339:10386   */\n      mstore\n        /* \"#utility.yul\":10403:10534   */\n      tag_265\n        /* \"#utility.yul\":10529:10533   */\n      dup2\n        /* \"#utility.yul\":10403:10534   */\n      tag_156\n      jump\t// in\n    tag_265:\n        /* \"#utility.yul\":10395:10534   */\n      swap1\n      pop\n        /* \"#utility.yul\":10122:10541   */\n      swap2\n      swap1\n      pop\n      jump\t// out\n        /* \"#utility.yul\":10547:10727   */\n    tag_157:\n        /* \"#utility.yul\":10595:10672   */\n      0x4e487b7100000000000000000000000000000000000000000000000000000000\n        /* \"#utility.yul\":10592:10593   */\n      0x00\n        /* \"#utility.yul\":10585:10673   */\n      mstore\n        /* \"#utility.yul\":10692:10696   */\n      0x11\n        /* \"#utility.yul\":10689:10690   */\n      0x04\n        /* \"#utility.yul\":10682:10697   */\n      mstore\n        /* \"#utility.yul\":10716:10720   */\n      0x24\n        /* \"#utility.yul\":10713:10714   */\n      0x00\n        /* \"#utility.yul\":10706:10721   */\n      revert\n        /* \"#utility.yul\":10733:11143   */\n    tag_103:\n        /* \"#utility.yul\":10773:10780   */\n      0x00\n        /* \"#utility.yul\":10796:10816   */\n      tag_268\n        /* \"#utility.yul\":10814:10815   */\n      dup3\n        /* \"#utility.yul\":10796:10816   */\n      tag_134\n      jump\t// in\n    tag_268:\n        /* \"#utility.yul\":10791:10816   */\n      swap2\n      pop\n        /* \"#utility.yul\":10830:10850   */\n      tag_269\n        /* \"#utility.yul\":10848:10849   */\n      dup4\n        /* \"#utility.yul\":10830:10850   */\n      tag_134\n      jump\t// in\n    tag_269:\n        /* \"#utility.yul\":10825:10850   */\n      swap3\n      pop\n        /* \"#utility.yul\":10885:10886   */\n      dup3\n        /* \"#utility.yul\":10882:10883   */\n      dup3\n        /* \"#utility.yul\":10878:10887   */\n      mul\n        /* \"#utility.yul\":10907:10937   */\n      tag_270\n        /* \"#utility.yul\":10925:10936   */\n      dup2\n        /* \"#utility.yul\":10907:10937   */\n      tag_134\n      jump\t// in\n    tag_270:\n        /* \"#utility.yul\":10896:10937   */\n      swap2\n      pop\n        /* \"#utility.yul\":11086:11087   */\n      dup3\n        /* \"#utility.yul\":11077:11084   */\n      dup3\n        /* \"#utility.yul\":11073:11088   */\n      div\n        /* \"#utility.yul\":11070:11071   */\n      dup5\n        /* \"#utility.yul\":11067:11089   */\n      eq\n        /* \"#utility.yul\":11047:11048   */\n      dup4\n        /* \"#utility.yul\":11040:11049   */\n      iszero\n        /* \"#utility.yul\":11020:11103   */\n      or\n        /* \"#utility.yul\":10997:11136   */\n      tag_271\n      jumpi\n        /* \"#utility.yul\":11116:11134   */\n      tag_272\n      tag_157\n      jump\t// in\n    tag_272:\n        /* \"#utility.yul\":10997:11136   */\n    tag_271:\n        /* \"#utility.yul\":10781:11143   */\n      pop\n        /* \"#utility.yul\":10733:11143   */\n      swap3\n      swap2\n      pop\n      pop\n      jump\t// out\n        /* \"#utility.yul\":11149:11329   */\n    tag_158:\n        /* \"#utility.yul\":11197:11274   */\n      0x4e487b7100000000000000000000000000000000000000000000000000000000\n        /* \"#utility.yul\":11194:11195   */\n      0x00\n        /* \"#utility.yul\":11187:11275   */\n      mstore\n        /* \"#utility.yul\":11294:11298   */\n      0x12\n        /* \"#utility.yul\":11291:11292   */\n      0x04\n        /* \"#utility.yul\":11284:11299   */\n      mstore\n        /* \"#utility.yul\":11318:11322   */\n      0x24\n        /* \"#utility.yul\":11315:11316   */\n      0x00\n        /* \"#utility.yul\":11308:11323   */\n      revert\n        /* \"#utility.yul\":11335:11520   */\n    tag_105:\n        /* \"#utility.yul\":11375:11376   */\n      0x00\n        /* \"#utility.yul\":11392:11412   */\n      tag_275\n        /* \"#utility.yul\":11410:11411   */\n      dup3\n        /* \"#utility.yul\":11392:11412   */\n      tag_134\n      jump\t// in\n    tag_275:\n        /* \"#utility.yul\":11387:11412   */\n      swap2\n      pop\n        /* \"#utility.yul\":11426:11446   */\n      tag_276\n        /* \"#utility.yul\":11444:11445   */\n      dup4\n        /* \"#utility.yul\":11426:11446   */\n      tag_134\n      jump\t// in\n    tag_276:\n        /* \"#utility.yul\":11421:11446   */\n      swap3\n      pop\n        /* \"#utility.yul\":11465:11466   */\n      dup3\n        /* \"#utility.yul\":11455:11490   */\n      tag_277\n      jumpi\n        /* \"#utility.yul\":11470:11488   */\n      tag_278\n      tag_158\n      jump\t// in\n    tag_278:\n        /* \"#utility.yul\":11455:11490   */\n    tag_277:\n        /* \"#utility.yul\":11512:11513   */\n      dup3\n        /* \"#utility.yul\":11509:11510   */\n      dup3\n        /* \"#utility.yul\":11505:11514   */\n      div\n        /* \"#utility.yul\":11500:11514   */\n      swap1\n      pop\n        /* \"#utility.yul\":11335:11520   */\n      swap3\n      swap2\n      pop\n      pop\n      jump\t// out\n        /* \"#utility.yul\":11526:11717   */\n    tag_107:\n        /* \"#utility.yul\":11566:11569   */\n      0x00\n        /* \"#utility.yul\":11585:11605   */\n      tag_280\n        /* \"#utility.yul\":11603:11604   */\n      dup3\n        /* \"#utility.yul\":11585:11605   */\n      tag_134\n      jump\t// in\n    tag_280:\n        /* \"#utility.yul\":11580:11605   */\n      swap2\n      pop\n        /* \"#utility.yul\":11619:11639   */\n      tag_281\n        /* \"#utility.yul\":11637:11638   */\n      dup4\n        /* \"#utility.yul\":11619:11639   */\n      tag_134\n      jump\t// in\n    tag_281:\n        /* \"#utility.yul\":11614:11639   */\n      swap3\n      pop\n        /* \"#utility.yul\":11662:11663   */\n      dup3\n        /* \"#utility.yul\":11659:11660   */\n      dup3\n        /* \"#utility.yul\":11655:11664   */\n      add\n        /* \"#utility.yul\":11648:11664   */\n      swap1\n      pop\n        /* \"#utility.yul\":11683:11686   */\n      dup1\n        /* \"#utility.yul\":11680:11681   */\n      dup3\n        /* \"#utility.yul\":11677:11687   */\n      gt\n        /* \"#utility.yul\":11674:11710   */\n      iszero\n      tag_282\n      jumpi\n        /* \"#utility.yul\":11690:11708   */\n      tag_283\n      tag_157\n      jump\t// in\n    tag_283:\n        /* \"#utility.yul\":11674:11710   */\n    tag_282:\n        /* \"#utility.yul\":11526:11717   */\n      swap3\n      swap2\n      pop\n      pop\n      jump\t// out\n        /* \"#utility.yul\":11723:12055   */\n    tag_113:\n        /* \"#utility.yul\":11844:11848   */\n      0x00\n        /* \"#utility.yul\":11882:11884   */\n      0x40\n        /* \"#utility.yul\":11871:11880   */\n      dup3\n        /* \"#utility.yul\":11867:11885   */\n      add\n        /* \"#utility.yul\":11859:11885   */\n      swap1\n      pop\n        /* \"#utility.yul\":11895:11966   */\n      tag_285\n        /* \"#utility.yul\":11963:11964   */\n      0x00\n        /* \"#utility.yul\":11952:11961   */\n      dup4\n        /* \"#utility.yul\":11948:11965   */\n      add\n        /* \"#utility.yul\":11939:11945   */\n      dup6\n        /* \"#utility.yul\":11895:11966   */\n      tag_135\n      jump\t// in\n    tag_285:\n        /* \"#utility.yul\":11976:12048   */\n      tag_286\n        /* \"#utility.yul\":12044:12046   */\n      0x20\n        /* \"#utility.yul\":12033:12042   */\n      dup4\n        /* \"#utility.yul\":12029:12047   */\n      add\n        /* \"#utility.yul\":12020:12026   */\n      dup5\n        /* \"#utility.yul\":11976:12048   */\n      tag_135\n      jump\t// in\n    tag_286:\n        /* \"#utility.yul\":11723:12055   */\n      swap4\n      swap3\n      pop\n      pop\n      pop\n      jump\t// out\n\n    auxdata: 0xa26469706673582212203e9f9fc67078952b581780d5b42f0d0fbe4f3c5d86456476fb0f2f8ef7c35c3164736f6c63430008180033\n}\n",
				"bytecode": {
					"linkReferences": {},
					"object": "608060405234801562000010575f80fd5b50604051620014b9380380620014b9833981810160405281019062000036919062000292565b335f73ffffffffffffffffffffffffffffffffffffffff168173ffffffffffffffffffffffffffffffffffffffff1603620000aa575f6040517f1e4fbdf7000000000000000000000000000000000000000000000000000000008152600401620000a19190620002e8565b60405180910390fd5b620000bb816200011e60201b60201c565b50815f60146101000a81548160ff021916908360ff1602179055508060015f6101000a81548173ffffffffffffffffffffffffffffffffffffffff021916908373ffffffffffffffffffffffffffffffffffffffff160217905550505062000303565b5f805f9054906101000a900473ffffffffffffffffffffffffffffffffffffffff169050815f806101000a81548173ffffffffffffffffffffffffffffffffffffffff021916908373ffffffffffffffffffffffffffffffffffffffff1602179055508173ffffffffffffffffffffffffffffffffffffffff168173ffffffffffffffffffffffffffffffffffffffff167f8be0079c531659141344cd1fd0a4f28419497f9722a3daafe3b4186f6b6457e060405160405180910390a35050565b5f80fd5b5f60ff82169050919050565b620001fa81620001e3565b811462000205575f80fd5b50565b5f815190506200021881620001ef565b92915050565b5f73ffffffffffffffffffffffffffffffffffffffff82169050919050565b5f62000249826200021e565b9050919050565b5f6200025c826200023d565b9050919050565b6200026e8162000250565b811462000279575f80fd5b50565b5f815190506200028c8162000263565b92915050565b5f8060408385031215620002ab57620002aa620001df565b5b5f620002ba8582860162000208565b9250506020620002cd858286016200027c565b9150509250929050565b620002e2816200023d565b82525050565b5f602082019050620002fd5f830184620002d7565b92915050565b6111a880620003115f395ff3fe608060405234801561000f575f80fd5b50600436106100a7575f3560e01c806388576dc91161006f57806388576dc9146101295780638aa58799146101455780638da5cb5b14610175578063f2fde38b14610193578063f873aff3146101af578063fc0c546a146101cb576100a7565b80633e25e837146100ab578063438c3bcd146100b55780634f51e294146100d15780635ea1d6f814610101578063715018a61461011f575b5f80fd5b6100b36101e9565b005b6100cf60048036038101906100ca9190610b90565b610476565b005b6100eb60048036038101906100e69190610b90565b61051f565b6040516100f89190610bd6565b60405180910390f35b61010961053c565b6040516101169190610bd6565b60405180910390f35b61012761054e565b005b610143600480360381019061013e9190610c19565b610561565b005b61015f600480360381019061015a9190610b90565b6105cb565b60405161016c9190610c5c565b60405180910390f35b61017d6105e0565b60405161018a9190610c84565b60405180910390f35b6101ad60048036038101906101a89190610b90565b610607565b005b6101c960048036038101906101c49190610cc7565b61068b565b005b6101d36109be565b6040516101e09190610d72565b60405180910390f35b5f60035f3373ffffffffffffffffffffffffffffffffffffffff1673ffffffffffffffffffffffffffffffffffffffff1681526020019081526020015f205490505f811161026c576040517f08c379a000000000000000000000000000000000000000000000000000000000815260040161026390610de5565b60405180910390fd5b8060015f9054906101000a900473ffffffffffffffffffffffffffffffffffffffff1673ffffffffffffffffffffffffffffffffffffffff166370a08231306040518263ffffffff1660e01b81526004016102c79190610c84565b602060405180830381865afa1580156102e2573d5f803e3d5ffd5b505050506040513d601f19601f820116820180604052508101906103069190610e17565b11610346576040517f08c379a000000000000000000000000000000000000000000000000000000000815260040161033d90610e8c565b60405180910390fd5b5f60035f3373ffffffffffffffffffffffffffffffffffffffff1673ffffffffffffffffffffffffffffffffffffffff1681526020019081526020015f208190555060015f9054906101000a900473ffffffffffffffffffffffffffffffffffffffff1673ffffffffffffffffffffffffffffffffffffffff1663a9059cbb33836040518363ffffffff1660e01b81526004016103e4929190610eaa565b6020604051808303815f875af1158015610400573d5f803e3d5ffd5b505050506040513d601f19601f820116820180604052508101906104249190610f06565b503373ffffffffffffffffffffffffffffffffffffffff167f2a016beab1c9536945a8f4c51b734f24f9d1458b765600efdabb6a3c52251e758260405161046b9190610c5c565b60405180910390a250565b5f60149054906101000a900460ff1660025f8373ffffffffffffffffffffffffffffffffffffffff1673ffffffffffffffffffffffffffffffffffffffff1681526020019081526020015f205f6101000a81548160ff021916908360ff1602179055508073ffffffffffffffffffffffffffffffffffffffff167f53286125aa034acaf4eb8a0931fe01b25caceba942ab407c6ce09e1b0dfab58c60405160405180910390a250565b6002602052805f5260405f205f915054906101000a900460ff1681565b5f60149054906101000a900460ff1681565b6105566109e3565b61055f5f610a6a565b565b6105696109e3565b805f60146101000a81548160ff021916908360ff1602179055507f33bedb18f5997e509fda05045e1279f45fd9c53ef8cb47f4b170f74cc63bccac5f60149054906101000a900460ff166040516105c09190610bd6565b60405180910390a150565b6003602052805f5260405f205f915090505481565b5f805f9054906101000a900473ffffffffffffffffffffffffffffffffffffffff16905090565b61060f6109e3565b5f73ffffffffffffffffffffffffffffffffffffffff168173ffffffffffffffffffffffffffffffffffffffff160361067f575f6040517f1e4fbdf70000000000000000000000000000000000000000000000000000000081526004016106769190610c84565b60405180910390fd5b61068881610a6a565b50565b6106936109e3565b5f82116106d5576040517f08c379a00000000000000000000000000000000000000000000000000000000081526004016106cc90610fa1565b60405180910390fd5b8073ffffffffffffffffffffffffffffffffffffffff168373ffffffffffffffffffffffffffffffffffffffff1603610743576040517f08c379a000000000000000000000000000000000000000000000000000000000815260040161073a9061102f565b60405180910390fd5b5f60025f8573ffffffffffffffffffffffffffffffffffffffff1673ffffffffffffffffffffffffffffffffffffffff1681526020019081526020015f205f9054906101000a900460ff1660ff16036107fa575f60149054906101000a900460ff1660025f8573ffffffffffffffffffffffffffffffffffffffff1673ffffffffffffffffffffffffffffffffffffffff1681526020019081526020015f205f6101000a81548160ff021916908360ff1602179055505b5f606460025f8673ffffffffffffffffffffffffffffffffffffffff1673ffffffffffffffffffffffffffffffffffffffff1681526020019081526020015f205f9054906101000a900460ff1660ff1684610855919061107a565b61085f91906110e8565b90508060035f8673ffffffffffffffffffffffffffffffffffffffff1673ffffffffffffffffffffffffffffffffffffffff1681526020019081526020015f205f8282546108ad9190611118565b9250508190555060015f9054906101000a900473ffffffffffffffffffffffffffffffffffffffff1673ffffffffffffffffffffffffffffffffffffffff1663a9059cbb83856040518363ffffffff1660e01b8152600401610910929190610eaa565b6020604051808303815f875af115801561092c573d5f803e3d5ffd5b505050506040513d601f19601f820116820180604052508101906109509190610f06565b508373ffffffffffffffffffffffffffffffffffffffff168273ffffffffffffffffffffffffffffffffffffffff167f5a1838523901c986595a2cf4484933f2c42d64a7bfc9b6d0c40cacb22379fa8285846040516109b092919061114b565b60405180910390a350505050565b60015f9054906101000a900473ffffffffffffffffffffffffffffffffffffffff1681565b6109eb610b2b565b73ffffffffffffffffffffffffffffffffffffffff16610a096105e0565b73ffffffffffffffffffffffffffffffffffffffff1614610a6857610a2c610b2b565b6040517f118cdaa7000000000000000000000000000000000000000000000000000000008152600401610a5f9190610c84565b60405180910390fd5b565b5f805f9054906101000a900473ffffffffffffffffffffffffffffffffffffffff169050815f806101000a81548173ffffffffffffffffffffffffffffffffffffffff021916908373ffffffffffffffffffffffffffffffffffffffff1602179055508173ffffffffffffffffffffffffffffffffffffffff168173ffffffffffffffffffffffffffffffffffffffff167f8be0079c531659141344cd1fd0a4f28419497f9722a3daafe3b4186f6b6457e060405160405180910390a35050565b5f33905090565b5f80fd5b5f73ffffffffffffffffffffffffffffffffffffffff82169050919050565b5f610b5f82610b36565b9050919050565b610b6f81610b55565b8114610b79575f80fd5b50565b5f81359050610b8a81610b66565b92915050565b5f60208284031215610ba557610ba4610b32565b5b5f610bb284828501610b7c565b91505092915050565b5f60ff82169050919050565b610bd081610bbb565b82525050565b5f602082019050610be95f830184610bc7565b92915050565b610bf881610bbb565b8114610c02575f80fd5b50565b5f81359050610c1381610bef565b92915050565b5f60208284031215610c2e57610c2d610b32565b5b5f610c3b84828501610c05565b91505092915050565b5f819050919050565b610c5681610c44565b82525050565b5f602082019050610c6f5f830184610c4d565b92915050565b610c7e81610b55565b82525050565b5f602082019050610c975f830184610c75565b92915050565b610ca681610c44565b8114610cb0575f80fd5b50565b5f81359050610cc181610c9d565b92915050565b5f805f60608486031215610cde57610cdd610b32565b5b5f610ceb86828701610b7c565b9350506020610cfc86828701610cb3565b9250506040610d0d86828701610b7c565b9150509250925092565b5f819050919050565b5f610d3a610d35610d3084610b36565b610d17565b610b36565b9050919050565b5f610d4b82610d20565b9050919050565b5f610d5c82610d41565b9050919050565b610d6c81610d52565b82525050565b5f602082019050610d855f830184610d63565b92915050565b5f82825260208201905092915050565b7f4e6f20636f6d6d697373696f6e20746f207769746864726177000000000000005f82015250565b5f610dcf601983610d8b565b9150610dda82610d9b565b602082019050919050565b5f6020820190508181035f830152610dfc81610dc3565b9050919050565b5f81519050610e1181610c9d565b92915050565b5f60208284031215610e2c57610e2b610b32565b5b5f610e3984828501610e03565b91505092915050565b7f496e7375666669636e657420636f6e74726163742062616c616e6365000000005f82015250565b5f610e76601c83610d8b565b9150610e8182610e42565b602082019050919050565b5f6020820190508181035f830152610ea381610e6a565b9050919050565b5f604082019050610ebd5f830185610c75565b610eca6020830184610c4d565b9392505050565b5f8115159050919050565b610ee581610ed1565b8114610eef575f80fd5b50565b5f81519050610f0081610edc565b92915050565b5f60208284031215610f1b57610f1a610b32565b5b5f610f2884828501610ef2565b91505092915050565b7f50757263686173652076616c7565206d757374206265206772656174657220745f8201527f68616e2030000000000000000000000000000000000000000000000000000000602082015250565b5f610f8b602583610d8b565b9150610f9682610f31565b604082019050919050565b5f6020820190508181035f830152610fb881610f7f565b9050919050565b7f416666696c696174652063616e6e6f74206265207468652073616d65206173205f8201527f637573746f6d6572000000000000000000000000000000000000000000000000602082015250565b5f611019602883610d8b565b915061102482610fbf565b604082019050919050565b5f6020820190508181035f8301526110468161100d565b9050919050565b7f4e487b71000000000000000000000000000000000000000000000000000000005f52601160045260245ffd5b5f61108482610c44565b915061108f83610c44565b925082820261109d81610c44565b915082820484148315176110b4576110b361104d565b5b5092915050565b7f4e487b71000000000000000000000000000000000000000000000000000000005f52601260045260245ffd5b5f6110f282610c44565b91506110fd83610c44565b92508261110d5761110c6110bb565b5b828204905092915050565b5f61112282610c44565b915061112d83610c44565b92508282019050808211156111455761114461104d565b5b92915050565b5f60408201905061115e5f830185610c4d565b61116b6020830184610c4d565b939250505056fea26469706673582212203e9f9fc67078952b581780d5b42f0d0fbe4f3c5d86456476fb0f2f8ef7c35c3164736f6c63430008180033",
					"opcodes": "PUSH1 0x80 PUSH1 0x40 MSTORE CALLVALUE DUP1 ISZERO PUSH3 0x10 JUMPI PUSH0 DUP1 REVERT JUMPDEST POP PUSH1 0x40 MLOAD PUSH3 0x14B9 CODESIZE SUB DUP1 PUSH3 0x14B9 DUP4 CODECOPY DUP2 DUP2 ADD PUSH1 0x40 MSTORE DUP2 ADD SWAP1 PUSH3 0x36 SWAP2 SWAP1 PUSH3 0x292 JUMP JUMPDEST CALLER PUSH0 PUSH20 0xFFFFFFFFFFFFFFFFFFFFFFFFFFFFFFFFFFFFFFFF AND DUP2 PUSH20 0xFFFFFFFFFFFFFFFFFFFFFFFFFFFFFFFFFFFFFFFF AND SUB PUSH3 0xAA JUMPI PUSH0 PUSH1 0x40 MLOAD PUSH32 0x1E4FBDF700000000000000000000000000000000000000000000000000000000 DUP2 MSTORE PUSH1 0x4 ADD PUSH3 0xA1 SWAP2 SWAP1 PUSH3 0x2E8 JUMP JUMPDEST PUSH1 0x40 MLOAD DUP1 SWAP2 SUB SWAP1 REVERT JUMPDEST PUSH3 0xBB DUP2 PUSH3 0x11E PUSH1 0x20 SHL PUSH1 0x20 SHR JUMP JUMPDEST POP DUP2 PUSH0 PUSH1 0x14 PUSH2 0x100 EXP DUP2 SLOAD DUP2 PUSH1 0xFF MUL NOT AND SWAP1 DUP4 PUSH1 0xFF AND MUL OR SWAP1 SSTORE POP DUP1 PUSH1 0x1 PUSH0 PUSH2 0x100 EXP DUP2 SLOAD DUP2 PUSH20 0xFFFFFFFFFFFFFFFFFFFFFFFFFFFFFFFFFFFFFFFF MUL NOT AND SWAP1 DUP4 PUSH20 0xFFFFFFFFFFFFFFFFFFFFFFFFFFFFFFFFFFFFFFFF AND MUL OR SWAP1 SSTORE POP POP POP PUSH3 0x303 JUMP JUMPDEST PUSH0 DUP1 PUSH0 SWAP1 SLOAD SWAP1 PUSH2 0x100 EXP SWAP1 DIV PUSH20 0xFFFFFFFFFFFFFFFFFFFFFFFFFFFFFFFFFFFFFFFF AND SWAP1 POP DUP2 PUSH0 DUP1 PUSH2 0x100 EXP DUP2 SLOAD DUP2 PUSH20 0xFFFFFFFFFFFFFFFFFFFFFFFFFFFFFFFFFFFFFFFF MUL NOT AND SWAP1 DUP4 PUSH20 0xFFFFFFFFFFFFFFFFFFFFFFFFFFFFFFFFFFFFFFFF AND MUL OR SWAP1 SSTORE POP DUP2 PUSH20 0xFFFFFFFFFFFFFFFFFFFFFFFFFFFFFFFFFFFFFFFF AND DUP2 PUSH20 0xFFFFFFFFFFFFFFFFFFFFFFFFFFFFFFFFFFFFFFFF AND PUSH32 0x8BE0079C531659141344CD1FD0A4F28419497F9722A3DAAFE3B4186F6B6457E0 PUSH1 0x40 MLOAD PUSH1 0x40 MLOAD DUP1 SWAP2 SUB SWAP1 LOG3 POP POP JUMP JUMPDEST PUSH0 DUP1 REVERT JUMPDEST PUSH0 PUSH1 0xFF DUP3 AND SWAP1 POP SWAP2 SWAP1 POP JUMP JUMPDEST PUSH3 0x1FA DUP2 PUSH3 0x1E3 JUMP JUMPDEST DUP2 EQ PUSH3 0x205 JUMPI PUSH0 DUP1 REVERT JUMPDEST POP JUMP JUMPDEST PUSH0 DUP2 MLOAD SWAP1 POP PUSH3 0x218 DUP2 PUSH3 0x1EF JUMP JUMPDEST SWAP3 SWAP2 POP POP JUMP JUMPDEST PUSH0 PUSH20 0xFFFFFFFFFFFFFFFFFFFFFFFFFFFFFFFFFFFFFFFF DUP3 AND SWAP1 POP SWAP2 SWAP1 POP JUMP JUMPDEST PUSH0 PUSH3 0x249 DUP3 PUSH3 0x21E JUMP JUMPDEST SWAP1 POP SWAP2 SWAP1 POP JUMP JUMPDEST PUSH0 PUSH3 0x25C DUP3 PUSH3 0x23D JUMP JUMPDEST SWAP1 POP SWAP2 SWAP1 POP JUMP JUMPDEST PUSH3 0x26E DUP2 PUSH3 0x250 JUMP JUMPDEST DUP2 EQ PUSH3 0x279 JUMPI PUSH0 DUP1 REVERT JUMPDEST POP JUMP JUMPDEST PUSH0 DUP2 MLOAD SWAP1 POP PUSH3 0x28C DUP2 PUSH3 0x263 JUMP JUMPDEST SWAP3 SWAP2 POP POP JUMP JUMPDEST PUSH0 DUP1 PUSH1 0x40 DUP4 DUP6 SUB SLT ISZERO PUSH3 0x2AB JUMPI PUSH3 0x2AA PUSH3 0x1DF JUMP JUMPDEST JUMPDEST PUSH0 PUSH3 0x2BA DUP6 DUP3 DUP7 ADD PUSH3 0x208 JUMP JUMPDEST SWAP3 POP POP PUSH1 0x20 PUSH3 0x2CD DUP6 DUP3 DUP7 ADD PUSH3 0x27C JUMP JUMPDEST SWAP2 POP POP SWAP3 POP SWAP3 SWAP1 POP JUMP JUMPDEST PUSH3 0x2E2 DUP2 PUSH3 0x23D JUMP JUMPDEST DUP3 MSTORE POP POP JUMP JUMPDEST PUSH0 PUSH1 0x20 DUP3 ADD SWAP1 POP PUSH3 0x2FD PUSH0 DUP4 ADD DUP5 PUSH3 0x2D7 JUMP JUMPDEST SWAP3 SWAP2 POP POP JUMP JUMPDEST PUSH2 0x11A8 DUP1 PUSH3 0x311 PUSH0 CODECOPY PUSH0 RETURN INVALID PUSH1 0x80 PUSH1 0x40 MSTORE CALLVALUE DUP1 ISZERO PUSH2 0xF JUMPI PUSH0 DUP1 REVERT JUMPDEST POP PUSH1 0x4 CALLDATASIZE LT PUSH2 0xA7 JUMPI PUSH0 CALLDATALOAD PUSH1 0xE0 SHR DUP1 PUSH4 0x88576DC9 GT PUSH2 0x6F JUMPI DUP1 PUSH4 0x88576DC9 EQ PUSH2 0x129 JUMPI DUP1 PUSH4 0x8AA58799 EQ PUSH2 0x145 JUMPI DUP1 PUSH4 0x8DA5CB5B EQ PUSH2 0x175 JUMPI DUP1 PUSH4 0xF2FDE38B EQ PUSH2 0x193 JUMPI DUP1 PUSH4 0xF873AFF3 EQ PUSH2 0x1AF JUMPI DUP1 PUSH4 0xFC0C546A EQ PUSH2 0x1CB JUMPI PUSH2 0xA7 JUMP JUMPDEST DUP1 PUSH4 0x3E25E837 EQ PUSH2 0xAB JUMPI DUP1 PUSH4 0x438C3BCD EQ PUSH2 0xB5 JUMPI DUP1 PUSH4 0x4F51E294 EQ PUSH2 0xD1 JUMPI DUP1 PUSH4 0x5EA1D6F8 EQ PUSH2 0x101 JUMPI DUP1 PUSH4 0x715018A6 EQ PUSH2 0x11F JUMPI JUMPDEST PUSH0 DUP1 REVERT JUMPDEST PUSH2 0xB3 PUSH2 0x1E9 JUMP JUMPDEST STOP JUMPDEST PUSH2 0xCF PUSH1 0x4 DUP1 CALLDATASIZE SUB DUP2 ADD SWAP1 PUSH2 0xCA SWAP2 SWAP1 PUSH2 0xB90 JUMP JUMPDEST PUSH2 0x476 JUMP JUMPDEST STOP JUMPDEST PUSH2 0xEB PUSH1 0x4 DUP1 CALLDATASIZE SUB DUP2 ADD SWAP1 PUSH2 0xE6 SWAP2 SWAP1 PUSH2 0xB90 JUMP JUMPDEST PUSH2 0x51F JUMP JUMPDEST PUSH1 0x40 MLOAD PUSH2 0xF8 SWAP2 SWAP1 PUSH2 0xBD6 JUMP JUMPDEST PUSH1 0x40 MLOAD DUP1 SWAP2 SUB SWAP1 RETURN JUMPDEST PUSH2 0x109 PUSH2 0x53C JUMP JUMPDEST PUSH1 0x40 MLOAD PUSH2 0x116 SWAP2 SWAP1 PUSH2 0xBD6 JUMP JUMPDEST PUSH1 0x40 MLOAD DUP1 SWAP2 SUB SWAP1 RETURN JUMPDEST PUSH2 0x127 PUSH2 0x54E JUMP JUMPDEST STOP JUMPDEST PUSH2 0x143 PUSH1 0x4 DUP1 CALLDATASIZE SUB DUP2 ADD SWAP1 PUSH2 0x13E SWAP2 SWAP1 PUSH2 0xC19 JUMP JUMPDEST PUSH2 0x561 JUMP JUMPDEST STOP JUMPDEST PUSH2 0x15F PUSH1 0x4 DUP1 CALLDATASIZE SUB DUP2 ADD SWAP1 PUSH2 0x15A SWAP2 SWAP1 PUSH2 0xB90 JUMP JUMPDEST PUSH2 0x5CB JUMP JUMPDEST PUSH1 0x40 MLOAD PUSH2 0x16C SWAP2 SWAP1 PUSH2 0xC5C JUMP JUMPDEST PUSH1 0x40 MLOAD DUP1 SWAP2 SUB SWAP1 RETURN JUMPDEST PUSH2 0x17D PUSH2 0x5E0 JUMP JUMPDEST PUSH1 0x40 MLOAD PUSH2 0x18A SWAP2 SWAP1 PUSH2 0xC84 JUMP JUMPDEST PUSH1 0x40 MLOAD DUP1 SWAP2 SUB SWAP1 RETURN JUMPDEST PUSH2 0x1AD PUSH1 0x4 DUP1 CALLDATASIZE SUB DUP2 ADD SWAP1 PUSH2 0x1A8 SWAP2 SWAP1 PUSH2 0xB90 JUMP JUMPDEST PUSH2 0x607 JUMP JUMPDEST STOP JUMPDEST PUSH2 0x1C9 PUSH1 0x4 DUP1 CALLDATASIZE SUB DUP2 ADD SWAP1 PUSH2 0x1C4 SWAP2 SWAP1 PUSH2 0xCC7 JUMP JUMPDEST PUSH2 0x68B JUMP JUMPDEST STOP JUMPDEST PUSH2 0x1D3 PUSH2 0x9BE JUMP JUMPDEST PUSH1 0x40 MLOAD PUSH2 0x1E0 SWAP2 SWAP1 PUSH2 0xD72 JUMP JUMPDEST PUSH1 0x40 MLOAD DUP1 SWAP2 SUB SWAP1 RETURN JUMPDEST PUSH0 PUSH1 0x3 PUSH0 CALLER PUSH20 0xFFFFFFFFFFFFFFFFFFFFFFFFFFFFFFFFFFFFFFFF AND PUSH20 0xFFFFFFFFFFFFFFFFFFFFFFFFFFFFFFFFFFFFFFFF AND DUP2 MSTORE PUSH1 0x20 ADD SWAP1 DUP2 MSTORE PUSH1 0x20 ADD PUSH0 KECCAK256 SLOAD SWAP1 POP PUSH0 DUP2 GT PUSH2 0x26C JUMPI PUSH1 0x40 MLOAD PUSH32 0x8C379A000000000000000000000000000000000000000000000000000000000 DUP2 MSTORE PUSH1 0x4 ADD PUSH2 0x263 SWAP1 PUSH2 0xDE5 JUMP JUMPDEST PUSH1 0x40 MLOAD DUP1 SWAP2 SUB SWAP1 REVERT JUMPDEST DUP1 PUSH1 0x1 PUSH0 SWAP1 SLOAD SWAP1 PUSH2 0x100 EXP SWAP1 DIV PUSH20 0xFFFFFFFFFFFFFFFFFFFFFFFFFFFFFFFFFFFFFFFF AND PUSH20 0xFFFFFFFFFFFFFFFFFFFFFFFFFFFFFFFFFFFFFFFF AND PUSH4 0x70A08231 ADDRESS PUSH1 0x40 MLOAD DUP3 PUSH4 0xFFFFFFFF AND PUSH1 0xE0 SHL DUP2 MSTORE PUSH1 0x4 ADD PUSH2 0x2C7 SWAP2 SWAP1 PUSH2 0xC84 JUMP JUMPDEST PUSH1 0x20 PUSH1 0x40 MLOAD DUP1 DUP4 SUB DUP2 DUP7 GAS STATICCALL ISZERO DUP1 ISZERO PUSH2 0x2E2 JUMPI RETURNDATASIZE PUSH0 DUP1 RETURNDATACOPY RETURNDATASIZE PUSH0 REVERT JUMPDEST POP POP POP POP PUSH1 0x40 MLOAD RETURNDATASIZE PUSH1 0x1F NOT PUSH1 0x1F DUP3 ADD AND DUP3 ADD DUP1 PUSH1 0x40 MSTORE POP DUP2 ADD SWAP1 PUSH2 0x306 SWAP2 SWAP1 PUSH2 0xE17 JUMP JUMPDEST GT PUSH2 0x346 JUMPI PUSH1 0x40 MLOAD PUSH32 0x8C379A000000000000000000000000000000000000000000000000000000000 DUP2 MSTORE PUSH1 0x4 ADD PUSH2 0x33D SWAP1 PUSH2 0xE8C JUMP JUMPDEST PUSH1 0x40 MLOAD DUP1 SWAP2 SUB SWAP1 REVERT JUMPDEST PUSH0 PUSH1 0x3 PUSH0 CALLER PUSH20 0xFFFFFFFFFFFFFFFFFFFFFFFFFFFFFFFFFFFFFFFF AND PUSH20 0xFFFFFFFFFFFFFFFFFFFFFFFFFFFFFFFFFFFFFFFF AND DUP2 MSTORE PUSH1 0x20 ADD SWAP1 DUP2 MSTORE PUSH1 0x20 ADD PUSH0 KECCAK256 DUP2 SWAP1 SSTORE POP PUSH1 0x1 PUSH0 SWAP1 SLOAD SWAP1 PUSH2 0x100 EXP SWAP1 DIV PUSH20 0xFFFFFFFFFFFFFFFFFFFFFFFFFFFFFFFFFFFFFFFF AND PUSH20 0xFFFFFFFFFFFFFFFFFFFFFFFFFFFFFFFFFFFFFFFF AND PUSH4 0xA9059CBB CALLER DUP4 PUSH1 0x40 MLOAD DUP4 PUSH4 0xFFFFFFFF AND PUSH1 0xE0 SHL DUP2 MSTORE PUSH1 0x4 ADD PUSH2 0x3E4 SWAP3 SWAP2 SWAP1 PUSH2 0xEAA JUMP JUMPDEST PUSH1 0x20 PUSH1 0x40 MLOAD DUP1 DUP4 SUB DUP2 PUSH0 DUP8 GAS CALL ISZERO DUP1 ISZERO PUSH2 0x400 JUMPI RETURNDATASIZE PUSH0 DUP1 RETURNDATACOPY RETURNDATASIZE PUSH0 REVERT JUMPDEST POP POP POP POP PUSH1 0x40 MLOAD RETURNDATASIZE PUSH1 0x1F NOT PUSH1 0x1F DUP3 ADD AND DUP3 ADD DUP1 PUSH1 0x40 MSTORE POP DUP2 ADD SWAP1 PUSH2 0x424 SWAP2 SWAP1 PUSH2 0xF06 JUMP JUMPDEST POP CALLER PUSH20 0xFFFFFFFFFFFFFFFFFFFFFFFFFFFFFFFFFFFFFFFF AND PUSH32 0x2A016BEAB1C9536945A8F4C51B734F24F9D1458B765600EFDABB6A3C52251E75 DUP3 PUSH1 0x40 MLOAD PUSH2 0x46B SWAP2 SWAP1 PUSH2 0xC5C JUMP JUMPDEST PUSH1 0x40 MLOAD DUP1 SWAP2 SUB SWAP1 LOG2 POP JUMP JUMPDEST PUSH0 PUSH1 0x14 SWAP1 SLOAD SWAP1 PUSH2 0x100 EXP SWAP1 DIV PUSH1 0xFF AND PUSH1 0x2 PUSH0 DUP4 PUSH20 0xFFFFFFFFFFFFFFFFFFFFFFFFFFFFFFFFFFFFFFFF AND PUSH20 0xFFFFFFFFFFFFFFFFFFFFFFFFFFFFFFFFFFFFFFFF AND DUP2 MSTORE PUSH1 0x20 ADD SWAP1 DUP2 MSTORE PUSH1 0x20 ADD PUSH0 KECCAK256 PUSH0 PUSH2 0x100 EXP DUP2 SLOAD DUP2 PUSH1 0xFF MUL NOT AND SWAP1 DUP4 PUSH1 0xFF AND MUL OR SWAP1 SSTORE POP DUP1 PUSH20 0xFFFFFFFFFFFFFFFFFFFFFFFFFFFFFFFFFFFFFFFF AND PUSH32 0x53286125AA034ACAF4EB8A0931FE01B25CACEBA942AB407C6CE09E1B0DFAB58C PUSH1 0x40 MLOAD PUSH1 0x40 MLOAD DUP1 SWAP2 SUB SWAP1 LOG2 POP JUMP JUMPDEST PUSH1 0x2 PUSH1 0x20 MSTORE DUP1 PUSH0 MSTORE PUSH1 0x40 PUSH0 KECCAK256 PUSH0 SWAP2 POP SLOAD SWAP1 PUSH2 0x100 EXP SWAP1 DIV PUSH1 0xFF AND DUP2 JUMP JUMPDEST PUSH0 PUSH1 0x14 SWAP1 SLOAD SWAP1 PUSH2 0x100 EXP SWAP1 DIV PUSH1 0xFF AND DUP2 JUMP JUMPDEST PUSH2 0x556 PUSH2 0x9E3 JUMP JUMPDEST PUSH2 0x55F PUSH0 PUSH2 0xA6A JUMP JUMPDEST JUMP JUMPDEST PUSH2 0x569 PUSH2 0x9E3 JUMP JUMPDEST DUP1 PUSH0 PUSH1 0x14 PUSH2 0x100 EXP DUP2 SLOAD DUP2 PUSH1 0xFF MUL NOT AND SWAP1 DUP4 PUSH1 0xFF AND MUL OR SWAP1 SSTORE POP PUSH32 0x33BEDB18F5997E509FDA05045E1279F45FD9C53EF8CB47F4B170F74CC63BCCAC PUSH0 PUSH1 0x14 SWAP1 SLOAD SWAP1 PUSH2 0x100 EXP SWAP1 DIV PUSH1 0xFF AND PUSH1 0x40 MLOAD PUSH2 0x5C0 SWAP2 SWAP1 PUSH2 0xBD6 JUMP JUMPDEST PUSH1 0x40 MLOAD DUP1 SWAP2 SUB SWAP1 LOG1 POP JUMP JUMPDEST PUSH1 0x3 PUSH1 0x20 MSTORE DUP1 PUSH0 MSTORE PUSH1 0x40 PUSH0 KECCAK256 PUSH0 SWAP2 POP SWAP1 POP SLOAD DUP2 JUMP JUMPDEST PUSH0 DUP1 PUSH0 SWAP1 SLOAD SWAP1 PUSH2 0x100 EXP SWAP1 DIV PUSH20 0xFFFFFFFFFFFFFFFFFFFFFFFFFFFFFFFFFFFFFFFF AND SWAP1 POP SWAP1 JUMP JUMPDEST PUSH2 0x60F PUSH2 0x9E3 JUMP JUMPDEST PUSH0 PUSH20 0xFFFFFFFFFFFFFFFFFFFFFFFFFFFFFFFFFFFFFFFF AND DUP2 PUSH20 0xFFFFFFFFFFFFFFFFFFFFFFFFFFFFFFFFFFFFFFFF AND SUB PUSH2 0x67F JUMPI PUSH0 PUSH1 0x40 MLOAD PUSH32 0x1E4FBDF700000000000000000000000000000000000000000000000000000000 DUP2 MSTORE PUSH1 0x4 ADD PUSH2 0x676 SWAP2 SWAP1 PUSH2 0xC84 JUMP JUMPDEST PUSH1 0x40 MLOAD DUP1 SWAP2 SUB SWAP1 REVERT JUMPDEST PUSH2 0x688 DUP2 PUSH2 0xA6A JUMP JUMPDEST POP JUMP JUMPDEST PUSH2 0x693 PUSH2 0x9E3 JUMP JUMPDEST PUSH0 DUP3 GT PUSH2 0x6D5 JUMPI PUSH1 0x40 MLOAD PUSH32 0x8C379A000000000000000000000000000000000000000000000000000000000 DUP2 MSTORE PUSH1 0x4 ADD PUSH2 0x6CC SWAP1 PUSH2 0xFA1 JUMP JUMPDEST PUSH1 0x40 MLOAD DUP1 SWAP2 SUB SWAP1 REVERT JUMPDEST DUP1 PUSH20 0xFFFFFFFFFFFFFFFFFFFFFFFFFFFFFFFFFFFFFFFF AND DUP4 PUSH20 0xFFFFFFFFFFFFFFFFFFFFFFFFFFFFFFFFFFFFFFFF AND SUB PUSH2 0x743 JUMPI PUSH1 0x40 MLOAD PUSH32 0x8C379A000000000000000000000000000000000000000000000000000000000 DUP2 MSTORE PUSH1 0x4 ADD PUSH2 0x73A SWAP1 PUSH2 0x102F JUMP JUMPDEST PUSH1 0x40 MLOAD DUP1 SWAP2 SUB SWAP1 REVERT JUMPDEST PUSH0 PUSH1 0x2 PUSH0 DUP6 PUSH20 0xFFFFFFFFFFFFFFFFFFFFFFFFFFFFFFFFFFFFFFFF AND PUSH20 0xFFFFFFFFFFFFFFFFFFFFFFFFFFFFFFFFFFFFFFFF AND DUP2 MSTORE PUSH1 0x20 ADD SWAP1 DUP2 MSTORE PUSH1 0x20 ADD PUSH0 KECCAK256 PUSH0 SWAP1 SLOAD SWAP1 PUSH2 0x100 EXP SWAP1 DIV PUSH1 0xFF AND PUSH1 0xFF AND SUB PUSH2 0x7FA JUMPI PUSH0 PUSH1 0x14 SWAP1 SLOAD SWAP1 PUSH2 0x100 EXP SWAP1 DIV PUSH1 0xFF AND PUSH1 0x2 PUSH0 DUP6 PUSH20 0xFFFFFFFFFFFFFFFFFFFFFFFFFFFFFFFFFFFFFFFF AND PUSH20 0xFFFFFFFFFFFFFFFFFFFFFFFFFFFFFFFFFFFFFFFF AND DUP2 MSTORE PUSH1 0x20 ADD SWAP1 DUP2 MSTORE PUSH1 0x20 ADD PUSH0 KECCAK256 PUSH0 PUSH2 0x100 EXP DUP2 SLOAD DUP2 PUSH1 0xFF MUL NOT AND SWAP1 DUP4 PUSH1 0xFF AND MUL OR SWAP1 SSTORE POP JUMPDEST PUSH0 PUSH1 0x64 PUSH1 0x2 PUSH0 DUP7 PUSH20 0xFFFFFFFFFFFFFFFFFFFFFFFFFFFFFFFFFFFFFFFF AND PUSH20 0xFFFFFFFFFFFFFFFFFFFFFFFFFFFFFFFFFFFFFFFF AND DUP2 MSTORE PUSH1 0x20 ADD SWAP1 DUP2 MSTORE PUSH1 0x20 ADD PUSH0 KECCAK256 PUSH0 SWAP1 SLOAD SWAP1 PUSH2 0x100 EXP SWAP1 DIV PUSH1 0xFF AND PUSH1 0xFF AND DUP5 PUSH2 0x855 SWAP2 SWAP1 PUSH2 0x107A JUMP JUMPDEST PUSH2 0x85F SWAP2 SWAP1 PUSH2 0x10E8 JUMP JUMPDEST SWAP1 POP DUP1 PUSH1 0x3 PUSH0 DUP7 PUSH20 0xFFFFFFFFFFFFFFFFFFFFFFFFFFFFFFFFFFFFFFFF AND PUSH20 0xFFFFFFFFFFFFFFFFFFFFFFFFFFFFFFFFFFFFFFFF AND DUP2 MSTORE PUSH1 0x20 ADD SWAP1 DUP2 MSTORE PUSH1 0x20 ADD PUSH0 KECCAK256 PUSH0 DUP3 DUP3 SLOAD PUSH2 0x8AD SWAP2 SWAP1 PUSH2 0x1118 JUMP JUMPDEST SWAP3 POP POP DUP2 SWAP1 SSTORE POP PUSH1 0x1 PUSH0 SWAP1 SLOAD SWAP1 PUSH2 0x100 EXP SWAP1 DIV PUSH20 0xFFFFFFFFFFFFFFFFFFFFFFFFFFFFFFFFFFFFFFFF AND PUSH20 0xFFFFFFFFFFFFFFFFFFFFFFFFFFFFFFFFFFFFFFFF AND PUSH4 0xA9059CBB DUP4 DUP6 PUSH1 0x40 MLOAD DUP4 PUSH4 0xFFFFFFFF AND PUSH1 0xE0 SHL DUP2 MSTORE PUSH1 0x4 ADD PUSH2 0x910 SWAP3 SWAP2 SWAP1 PUSH2 0xEAA JUMP JUMPDEST PUSH1 0x20 PUSH1 0x40 MLOAD DUP1 DUP4 SUB DUP2 PUSH0 DUP8 GAS CALL ISZERO DUP1 ISZERO PUSH2 0x92C JUMPI RETURNDATASIZE PUSH0 DUP1 RETURNDATACOPY RETURNDATASIZE PUSH0 REVERT JUMPDEST POP POP POP POP PUSH1 0x40 MLOAD RETURNDATASIZE PUSH1 0x1F NOT PUSH1 0x1F DUP3 ADD AND DUP3 ADD DUP1 PUSH1 0x40 MSTORE POP DUP2 ADD SWAP1 PUSH2 0x950 SWAP2 SWAP1 PUSH2 0xF06 JUMP JUMPDEST POP DUP4 PUSH20 0xFFFFFFFFFFFFFFFFFFFFFFFFFFFFFFFFFFFFFFFF AND DUP3 PUSH20 0xFFFFFFFFFFFFFFFFFFFFFFFFFFFFFFFFFFFFFFFF AND PUSH32 0x5A1838523901C986595A2CF4484933F2C42D64A7BFC9B6D0C40CACB22379FA82 DUP6 DUP5 PUSH1 0x40 MLOAD PUSH2 0x9B0 SWAP3 SWAP2 SWAP1 PUSH2 0x114B JUMP JUMPDEST PUSH1 0x40 MLOAD DUP1 SWAP2 SUB SWAP1 LOG3 POP POP POP POP JUMP JUMPDEST PUSH1 0x1 PUSH0 SWAP1 SLOAD SWAP1 PUSH2 0x100 EXP SWAP1 DIV PUSH20 0xFFFFFFFFFFFFFFFFFFFFFFFFFFFFFFFFFFFFFFFF AND DUP2 JUMP JUMPDEST PUSH2 0x9EB PUSH2 0xB2B JUMP JUMPDEST PUSH20 0xFFFFFFFFFFFFFFFFFFFFFFFFFFFFFFFFFFFFFFFF AND PUSH2 0xA09 PUSH2 0x5E0 JUMP JUMPDEST PUSH20 0xFFFFFFFFFFFFFFFFFFFFFFFFFFFFFFFFFFFFFFFF AND EQ PUSH2 0xA68 JUMPI PUSH2 0xA2C PUSH2 0xB2B JUMP JUMPDEST PUSH1 0x40 MLOAD PUSH32 0x118CDAA700000000000000000000000000000000000000000000000000000000 DUP2 MSTORE PUSH1 0x4 ADD PUSH2 0xA5F SWAP2 SWAP1 PUSH2 0xC84 JUMP JUMPDEST PUSH1 0x40 MLOAD DUP1 SWAP2 SUB SWAP1 REVERT JUMPDEST JUMP JUMPDEST PUSH0 DUP1 PUSH0 SWAP1 SLOAD SWAP1 PUSH2 0x100 EXP SWAP1 DIV PUSH20 0xFFFFFFFFFFFFFFFFFFFFFFFFFFFFFFFFFFFFFFFF AND SWAP1 POP DUP2 PUSH0 DUP1 PUSH2 0x100 EXP DUP2 SLOAD DUP2 PUSH20 0xFFFFFFFFFFFFFFFFFFFFFFFFFFFFFFFFFFFFFFFF MUL NOT AND SWAP1 DUP4 PUSH20 0xFFFFFFFFFFFFFFFFFFFFFFFFFFFFFFFFFFFFFFFF AND MUL OR SWAP1 SSTORE POP DUP2 PUSH20 0xFFFFFFFFFFFFFFFFFFFFFFFFFFFFFFFFFFFFFFFF AND DUP2 PUSH20 0xFFFFFFFFFFFFFFFFFFFFFFFFFFFFFFFFFFFFFFFF AND PUSH32 0x8BE0079C531659141344CD1FD0A4F28419497F9722A3DAAFE3B4186F6B6457E0 PUSH1 0x40 MLOAD PUSH1 0x40 MLOAD DUP1 SWAP2 SUB SWAP1 LOG3 POP POP JUMP JUMPDEST PUSH0 CALLER SWAP1 POP SWAP1 JUMP JUMPDEST PUSH0 DUP1 REVERT JUMPDEST PUSH0 PUSH20 0xFFFFFFFFFFFFFFFFFFFFFFFFFFFFFFFFFFFFFFFF DUP3 AND SWAP1 POP SWAP2 SWAP1 POP JUMP JUMPDEST PUSH0 PUSH2 0xB5F DUP3 PUSH2 0xB36 JUMP JUMPDEST SWAP1 POP SWAP2 SWAP1 POP JUMP JUMPDEST PUSH2 0xB6F DUP2 PUSH2 0xB55 JUMP JUMPDEST DUP2 EQ PUSH2 0xB79 JUMPI PUSH0 DUP1 REVERT JUMPDEST POP JUMP JUMPDEST PUSH0 DUP2 CALLDATALOAD SWAP1 POP PUSH2 0xB8A DUP2 PUSH2 0xB66 JUMP JUMPDEST SWAP3 SWAP2 POP POP JUMP JUMPDEST PUSH0 PUSH1 0x20 DUP3 DUP5 SUB SLT ISZERO PUSH2 0xBA5 JUMPI PUSH2 0xBA4 PUSH2 0xB32 JUMP JUMPDEST JUMPDEST PUSH0 PUSH2 0xBB2 DUP5 DUP3 DUP6 ADD PUSH2 0xB7C JUMP JUMPDEST SWAP2 POP POP SWAP3 SWAP2 POP POP JUMP JUMPDEST PUSH0 PUSH1 0xFF DUP3 AND SWAP1 POP SWAP2 SWAP1 POP JUMP JUMPDEST PUSH2 0xBD0 DUP2 PUSH2 0xBBB JUMP JUMPDEST DUP3 MSTORE POP POP JUMP JUMPDEST PUSH0 PUSH1 0x20 DUP3 ADD SWAP1 POP PUSH2 0xBE9 PUSH0 DUP4 ADD DUP5 PUSH2 0xBC7 JUMP JUMPDEST SWAP3 SWAP2 POP POP JUMP JUMPDEST PUSH2 0xBF8 DUP2 PUSH2 0xBBB JUMP JUMPDEST DUP2 EQ PUSH2 0xC02 JUMPI PUSH0 DUP1 REVERT JUMPDEST POP JUMP JUMPDEST PUSH0 DUP2 CALLDATALOAD SWAP1 POP PUSH2 0xC13 DUP2 PUSH2 0xBEF JUMP JUMPDEST SWAP3 SWAP2 POP POP JUMP JUMPDEST PUSH0 PUSH1 0x20 DUP3 DUP5 SUB SLT ISZERO PUSH2 0xC2E JUMPI PUSH2 0xC2D PUSH2 0xB32 JUMP JUMPDEST JUMPDEST PUSH0 PUSH2 0xC3B DUP5 DUP3 DUP6 ADD PUSH2 0xC05 JUMP JUMPDEST SWAP2 POP POP SWAP3 SWAP2 POP POP JUMP JUMPDEST PUSH0 DUP2 SWAP1 POP SWAP2 SWAP1 POP JUMP JUMPDEST PUSH2 0xC56 DUP2 PUSH2 0xC44 JUMP JUMPDEST DUP3 MSTORE POP POP JUMP JUMPDEST PUSH0 PUSH1 0x20 DUP3 ADD SWAP1 POP PUSH2 0xC6F PUSH0 DUP4 ADD DUP5 PUSH2 0xC4D JUMP JUMPDEST SWAP3 SWAP2 POP POP JUMP JUMPDEST PUSH2 0xC7E DUP2 PUSH2 0xB55 JUMP JUMPDEST DUP3 MSTORE POP POP JUMP JUMPDEST PUSH0 PUSH1 0x20 DUP3 ADD SWAP1 POP PUSH2 0xC97 PUSH0 DUP4 ADD DUP5 PUSH2 0xC75 JUMP JUMPDEST SWAP3 SWAP2 POP POP JUMP JUMPDEST PUSH2 0xCA6 DUP2 PUSH2 0xC44 JUMP JUMPDEST DUP2 EQ PUSH2 0xCB0 JUMPI PUSH0 DUP1 REVERT JUMPDEST POP JUMP JUMPDEST PUSH0 DUP2 CALLDATALOAD SWAP1 POP PUSH2 0xCC1 DUP2 PUSH2 0xC9D JUMP JUMPDEST SWAP3 SWAP2 POP POP JUMP JUMPDEST PUSH0 DUP1 PUSH0 PUSH1 0x60 DUP5 DUP7 SUB SLT ISZERO PUSH2 0xCDE JUMPI PUSH2 0xCDD PUSH2 0xB32 JUMP JUMPDEST JUMPDEST PUSH0 PUSH2 0xCEB DUP7 DUP3 DUP8 ADD PUSH2 0xB7C JUMP JUMPDEST SWAP4 POP POP PUSH1 0x20 PUSH2 0xCFC DUP7 DUP3 DUP8 ADD PUSH2 0xCB3 JUMP JUMPDEST SWAP3 POP POP PUSH1 0x40 PUSH2 0xD0D DUP7 DUP3 DUP8 ADD PUSH2 0xB7C JUMP JUMPDEST SWAP2 POP POP SWAP3 POP SWAP3 POP SWAP3 JUMP JUMPDEST PUSH0 DUP2 SWAP1 POP SWAP2 SWAP1 POP JUMP JUMPDEST PUSH0 PUSH2 0xD3A PUSH2 0xD35 PUSH2 0xD30 DUP5 PUSH2 0xB36 JUMP JUMPDEST PUSH2 0xD17 JUMP JUMPDEST PUSH2 0xB36 JUMP JUMPDEST SWAP1 POP SWAP2 SWAP1 POP JUMP JUMPDEST PUSH0 PUSH2 0xD4B DUP3 PUSH2 0xD20 JUMP JUMPDEST SWAP1 POP SWAP2 SWAP1 POP JUMP JUMPDEST PUSH0 PUSH2 0xD5C DUP3 PUSH2 0xD41 JUMP JUMPDEST SWAP1 POP SWAP2 SWAP1 POP JUMP JUMPDEST PUSH2 0xD6C DUP2 PUSH2 0xD52 JUMP JUMPDEST DUP3 MSTORE POP POP JUMP JUMPDEST PUSH0 PUSH1 0x20 DUP3 ADD SWAP1 POP PUSH2 0xD85 PUSH0 DUP4 ADD DUP5 PUSH2 0xD63 JUMP JUMPDEST SWAP3 SWAP2 POP POP JUMP JUMPDEST PUSH0 DUP3 DUP3 MSTORE PUSH1 0x20 DUP3 ADD SWAP1 POP SWAP3 SWAP2 POP POP JUMP JUMPDEST PUSH32 0x4E6F20636F6D6D697373696F6E20746F20776974686472617700000000000000 PUSH0 DUP3 ADD MSTORE POP JUMP JUMPDEST PUSH0 PUSH2 0xDCF PUSH1 0x19 DUP4 PUSH2 0xD8B JUMP JUMPDEST SWAP2 POP PUSH2 0xDDA DUP3 PUSH2 0xD9B JUMP JUMPDEST PUSH1 0x20 DUP3 ADD SWAP1 POP SWAP2 SWAP1 POP JUMP JUMPDEST PUSH0 PUSH1 0x20 DUP3 ADD SWAP1 POP DUP2 DUP2 SUB PUSH0 DUP4 ADD MSTORE PUSH2 0xDFC DUP2 PUSH2 0xDC3 JUMP JUMPDEST SWAP1 POP SWAP2 SWAP1 POP JUMP JUMPDEST PUSH0 DUP2 MLOAD SWAP1 POP PUSH2 0xE11 DUP2 PUSH2 0xC9D JUMP JUMPDEST SWAP3 SWAP2 POP POP JUMP JUMPDEST PUSH0 PUSH1 0x20 DUP3 DUP5 SUB SLT ISZERO PUSH2 0xE2C JUMPI PUSH2 0xE2B PUSH2 0xB32 JUMP JUMPDEST JUMPDEST PUSH0 PUSH2 0xE39 DUP5 DUP3 DUP6 ADD PUSH2 0xE03 JUMP JUMPDEST SWAP2 POP POP SWAP3 SWAP2 POP POP JUMP JUMPDEST PUSH32 0x496E7375666669636E657420636F6E74726163742062616C616E636500000000 PUSH0 DUP3 ADD MSTORE POP JUMP JUMPDEST PUSH0 PUSH2 0xE76 PUSH1 0x1C DUP4 PUSH2 0xD8B JUMP JUMPDEST SWAP2 POP PUSH2 0xE81 DUP3 PUSH2 0xE42 JUMP JUMPDEST PUSH1 0x20 DUP3 ADD SWAP1 POP SWAP2 SWAP1 POP JUMP JUMPDEST PUSH0 PUSH1 0x20 DUP3 ADD SWAP1 POP DUP2 DUP2 SUB PUSH0 DUP4 ADD MSTORE PUSH2 0xEA3 DUP2 PUSH2 0xE6A JUMP JUMPDEST SWAP1 POP SWAP2 SWAP1 POP JUMP JUMPDEST PUSH0 PUSH1 0x40 DUP3 ADD SWAP1 POP PUSH2 0xEBD PUSH0 DUP4 ADD DUP6 PUSH2 0xC75 JUMP JUMPDEST PUSH2 0xECA PUSH1 0x20 DUP4 ADD DUP5 PUSH2 0xC4D JUMP JUMPDEST SWAP4 SWAP3 POP POP POP JUMP JUMPDEST PUSH0 DUP2 ISZERO ISZERO SWAP1 POP SWAP2 SWAP1 POP JUMP JUMPDEST PUSH2 0xEE5 DUP2 PUSH2 0xED1 JUMP JUMPDEST DUP2 EQ PUSH2 0xEEF JUMPI PUSH0 DUP1 REVERT JUMPDEST POP JUMP JUMPDEST PUSH0 DUP2 MLOAD SWAP1 POP PUSH2 0xF00 DUP2 PUSH2 0xEDC JUMP JUMPDEST SWAP3 SWAP2 POP POP JUMP JUMPDEST PUSH0 PUSH1 0x20 DUP3 DUP5 SUB SLT ISZERO PUSH2 0xF1B JUMPI PUSH2 0xF1A PUSH2 0xB32 JUMP JUMPDEST JUMPDEST PUSH0 PUSH2 0xF28 DUP5 DUP3 DUP6 ADD PUSH2 0xEF2 JUMP JUMPDEST SWAP2 POP POP SWAP3 SWAP2 POP POP JUMP JUMPDEST PUSH32 0x50757263686173652076616C7565206D75737420626520677265617465722074 PUSH0 DUP3 ADD MSTORE PUSH32 0x68616E2030000000000000000000000000000000000000000000000000000000 PUSH1 0x20 DUP3 ADD MSTORE POP JUMP JUMPDEST PUSH0 PUSH2 0xF8B PUSH1 0x25 DUP4 PUSH2 0xD8B JUMP JUMPDEST SWAP2 POP PUSH2 0xF96 DUP3 PUSH2 0xF31 JUMP JUMPDEST PUSH1 0x40 DUP3 ADD SWAP1 POP SWAP2 SWAP1 POP JUMP JUMPDEST PUSH0 PUSH1 0x20 DUP3 ADD SWAP1 POP DUP2 DUP2 SUB PUSH0 DUP4 ADD MSTORE PUSH2 0xFB8 DUP2 PUSH2 0xF7F JUMP JUMPDEST SWAP1 POP SWAP2 SWAP1 POP JUMP JUMPDEST PUSH32 0x416666696C696174652063616E6E6F74206265207468652073616D6520617320 PUSH0 DUP3 ADD MSTORE PUSH32 0x637573746F6D6572000000000000000000000000000000000000000000000000 PUSH1 0x20 DUP3 ADD MSTORE POP JUMP JUMPDEST PUSH0 PUSH2 0x1019 PUSH1 0x28 DUP4 PUSH2 0xD8B JUMP JUMPDEST SWAP2 POP PUSH2 0x1024 DUP3 PUSH2 0xFBF JUMP JUMPDEST PUSH1 0x40 DUP3 ADD SWAP1 POP SWAP2 SWAP1 POP JUMP JUMPDEST PUSH0 PUSH1 0x20 DUP3 ADD SWAP1 POP DUP2 DUP2 SUB PUSH0 DUP4 ADD MSTORE PUSH2 0x1046 DUP2 PUSH2 0x100D JUMP JUMPDEST SWAP1 POP SWAP2 SWAP1 POP JUMP JUMPDEST PUSH32 0x4E487B7100000000000000000000000000000000000000000000000000000000 PUSH0 MSTORE PUSH1 0x11 PUSH1 0x4 MSTORE PUSH1 0x24 PUSH0 REVERT JUMPDEST PUSH0 PUSH2 0x1084 DUP3 PUSH2 0xC44 JUMP JUMPDEST SWAP2 POP PUSH2 0x108F DUP4 PUSH2 0xC44 JUMP JUMPDEST SWAP3 POP DUP3 DUP3 MUL PUSH2 0x109D DUP2 PUSH2 0xC44 JUMP JUMPDEST SWAP2 POP DUP3 DUP3 DIV DUP5 EQ DUP4 ISZERO OR PUSH2 0x10B4 JUMPI PUSH2 0x10B3 PUSH2 0x104D JUMP JUMPDEST JUMPDEST POP SWAP3 SWAP2 POP POP JUMP JUMPDEST PUSH32 0x4E487B7100000000000000000000000000000000000000000000000000000000 PUSH0 MSTORE PUSH1 0x12 PUSH1 0x4 MSTORE PUSH1 0x24 PUSH0 REVERT JUMPDEST PUSH0 PUSH2 0x10F2 DUP3 PUSH2 0xC44 JUMP JUMPDEST SWAP2 POP PUSH2 0x10FD DUP4 PUSH2 0xC44 JUMP JUMPDEST SWAP3 POP DUP3 PUSH2 0x110D JUMPI PUSH2 0x110C PUSH2 0x10BB JUMP JUMPDEST JUMPDEST DUP3 DUP3 DIV SWAP1 POP SWAP3 SWAP2 POP POP JUMP JUMPDEST PUSH0 PUSH2 0x1122 DUP3 PUSH2 0xC44 JUMP JUMPDEST SWAP2 POP PUSH2 0x112D DUP4 PUSH2 0xC44 JUMP JUMPDEST SWAP3 POP DUP3 DUP3 ADD SWAP1 POP DUP1 DUP3 GT ISZERO PUSH2 0x1145 JUMPI PUSH2 0x1144 PUSH2 0x104D JUMP JUMPDEST JUMPDEST SWAP3 SWAP2 POP POP JUMP JUMPDEST PUSH0 PUSH1 0x40 DUP3 ADD SWAP1 POP PUSH2 0x115E PUSH0 DUP4 ADD DUP6 PUSH2 0xC4D JUMP JUMPDEST PUSH2 0x116B PUSH1 0x20 DUP4 ADD DUP5 PUSH2 0xC4D JUMP JUMPDEST SWAP4 SWAP3 POP POP POP JUMP INVALID LOG2 PUSH5 0x6970667358 0x22 SLT KECCAK256 RETURNDATACOPY SWAP16 SWAP16 0xC6 PUSH17 0x78952B581780D5B42F0D0FBE4F3C5D8645 PUSH5 0x76FB0F2F8E 0xF7 0xC3 TLOAD BALANCE PUSH5 0x736F6C6343 STOP ADDMOD XOR STOP CALLER "
				},
				"gasEstimates": {
					"creation": {
						"codeDepositCost": "904000",
						"executionCost": "infinite",
						"totalCost": "infinite"
					},
					"external": {
						"accumulatedCommission(address)": "2824",
						"addCommissionByOwner(address,uint256,address)": "infinite",
						"affiliates(address)": "2878",
						"changeCommissionRate(uint8)": "infinite",
						"commissionRate()": "2583",
						"owner()": "2559",
						"registerAsAffiliate(address)": "28172",
						"renounceOwnership()": "infinite",
						"token()": "infinite",
						"transferOwnership(address)": "infinite",
						"withdrawCommission()": "infinite"
					},
					"internal": {
						"addCommission(address,uint256,address)": "infinite"
					}
				},
				"methodIdentifiers": {
					"accumulatedCommission(address)": "8aa58799",
					"addCommissionByOwner(address,uint256,address)": "f873aff3",
					"affiliates(address)": "4f51e294",
					"changeCommissionRate(uint8)": "88576dc9",
					"commissionRate()": "5ea1d6f8",
					"owner()": "8da5cb5b",
					"registerAsAffiliate(address)": "438c3bcd",
					"renounceOwnership()": "715018a6",
					"token()": "fc0c546a",
					"transferOwnership(address)": "f2fde38b",
					"withdrawCommission()": "3e25e837"
				}
			},
			"storageLayout": {
				"storage": [
					{
						"astId": 8,
						"contract": "contracts/Affiliate.sol:AffiliateProgram",
						"label": "_owner",
						"offset": 0,
						"slot": "0",
						"type": "t_address"
					},
					{
						"astId": 263,
						"contract": "contracts/Affiliate.sol:AffiliateProgram",
						"label": "commissionRate",
						"offset": 20,
						"slot": "0",
						"type": "t_uint8"
					},
					{
						"astId": 266,
						"contract": "contracts/Affiliate.sol:AffiliateProgram",
						"label": "token",
						"offset": 0,
						"slot": "1",
						"type": "t_contract(IERC20)225"
					},
					{
						"astId": 291,
						"contract": "contracts/Affiliate.sol:AffiliateProgram",
						"label": "affiliates",
						"offset": 0,
						"slot": "2",
						"type": "t_mapping(t_address,t_uint8)"
					},
					{
						"astId": 295,
						"contract": "contracts/Affiliate.sol:AffiliateProgram",
						"label": "accumulatedCommission",
						"offset": 0,
						"slot": "3",
						"type": "t_mapping(t_address,t_uint256)"
					}
				],
				"types": {
					"t_address": {
						"encoding": "inplace",
						"label": "address",
						"numberOfBytes": "20"
					},
					"t_contract(IERC20)225": {
						"encoding": "inplace",
						"label": "contract IERC20",
						"numberOfBytes": "20"
					},
					"t_mapping(t_address,t_uint256)": {
						"encoding": "mapping",
						"key": "t_address",
						"label": "mapping(address => uint256)",
						"numberOfBytes": "32",
						"value": "t_uint256"
					},
					"t_mapping(t_address,t_uint8)": {
						"encoding": "mapping",
						"key": "t_address",
						"label": "mapping(address => uint8)",
						"numberOfBytes": "32",
						"value": "t_uint8"
					},
					"t_uint256": {
						"encoding": "inplace",
						"label": "uint256",
						"numberOfBytes": "32"
					},
					"t_uint8": {
						"encoding": "inplace",
						"label": "uint8",
						"numberOfBytes": "1"
					}
				}
			},
			"userdoc": {
				"kind": "user",
				"methods": {},
				"version": 1
			}
		}
	}
}